{
  "contractName": "PatientRecords",
  "abi": [
    {
      "constant": true,
      "inputs": [],
      "name": "MAX_COUNT",
      "outputs": [
        {
          "name": "",
          "type": "uint256"
        }
      ],
      "payable": false,
      "stateMutability": "view",
      "type": "function"
    },
    {
      "constant": true,
      "inputs": [],
      "name": "owner",
      "outputs": [
        {
          "name": "",
          "type": "address"
        }
      ],
      "payable": false,
      "stateMutability": "view",
      "type": "function"
    },
    {
      "constant": true,
      "inputs": [
        {
          "name": "",
          "type": "address"
        }
      ],
      "name": "isPatient",
      "outputs": [
        {
          "name": "",
          "type": "bool"
        }
      ],
      "payable": false,
      "stateMutability": "view",
      "type": "function"
    },
    {
      "constant": true,
      "inputs": [],
      "name": "recordCount",
      "outputs": [
        {
          "name": "",
          "type": "uint256"
        }
      ],
      "payable": false,
      "stateMutability": "view",
      "type": "function"
    },
    {
      "constant": true,
      "inputs": [
        {
          "name": "",
          "type": "address"
        }
      ],
      "name": "isHospital",
      "outputs": [
        {
          "name": "",
          "type": "bool"
        }
      ],
      "payable": false,
      "stateMutability": "view",
      "type": "function"
    },
    {
      "constant": false,
      "inputs": [
        {
          "name": "newOwner",
          "type": "address"
        }
      ],
      "name": "transferOwnership",
      "outputs": [],
      "payable": false,
      "stateMutability": "nonpayable",
      "type": "function"
    },
    {
      "inputs": [
        {
          "name": "_hospitals",
          "type": "address[]"
        },
        {
          "name": "_patients",
          "type": "address[]"
        }
      ],
      "payable": false,
      "stateMutability": "nonpayable",
      "type": "constructor"
    },
    {
      "payable": true,
      "stateMutability": "payable",
      "type": "fallback"
    },
    {
      "anonymous": false,
      "inputs": [
        {
          "indexed": true,
          "name": "sender",
          "type": "address"
        },
        {
          "indexed": false,
          "name": "value",
          "type": "uint256"
        }
      ],
      "name": "Deposit",
      "type": "event"
    },
    {
      "anonymous": false,
      "inputs": [
        {
          "indexed": false,
          "name": "hospital",
          "type": "address"
        }
      ],
      "name": "HospitalAddition",
      "type": "event"
    },
    {
      "anonymous": false,
      "inputs": [
        {
          "indexed": false,
          "name": "hospital",
          "type": "address"
        }
      ],
      "name": "HospitalRemoval",
      "type": "event"
    },
    {
      "anonymous": false,
      "inputs": [
        {
          "indexed": false,
          "name": "patient",
          "type": "address"
        }
      ],
      "name": "PatientAddition",
      "type": "event"
    },
    {
      "anonymous": false,
      "inputs": [
        {
          "indexed": false,
          "name": "patient",
          "type": "address"
        }
      ],
      "name": "PatientRemoval",
      "type": "event"
    },
    {
      "anonymous": false,
      "inputs": [
        {
          "indexed": false,
          "name": "recordID",
          "type": "uint256"
        },
        {
          "indexed": false,
          "name": "patientAddress",
          "type": "address"
        }
      ],
      "name": "PatientRecordAdded",
      "type": "event"
    },
    {
      "anonymous": false,
      "inputs": [
        {
          "indexed": false,
          "name": "recordID",
          "type": "uint256"
        },
        {
          "indexed": false,
          "name": "patientAddress",
          "type": "address"
        }
      ],
      "name": "NameAddedToRecords",
      "type": "event"
    },
    {
      "anonymous": false,
      "inputs": [
        {
          "indexed": true,
          "name": "previousOwner",
          "type": "address"
        },
        {
          "indexed": true,
          "name": "newOwner",
          "type": "address"
        }
      ],
      "name": "OwnershipTransferred",
      "type": "event"
    },
    {
      "constant": false,
      "inputs": [
        {
          "name": "_hospital",
          "type": "address"
        }
      ],
      "name": "addHospital",
      "outputs": [],
      "payable": false,
      "stateMutability": "nonpayable",
      "type": "function"
    },
    {
      "constant": false,
      "inputs": [
        {
          "name": "_hospital",
          "type": "address"
        }
      ],
      "name": "removeHospital",
      "outputs": [],
      "payable": false,
      "stateMutability": "nonpayable",
      "type": "function"
    },
    {
      "constant": false,
      "inputs": [
        {
          "name": "_patient",
          "type": "address"
        }
      ],
      "name": "addPatient",
      "outputs": [],
      "payable": false,
      "stateMutability": "nonpayable",
      "type": "function"
    },
    {
      "constant": false,
      "inputs": [
        {
          "name": "_patient",
          "type": "address"
        }
      ],
      "name": "removePatient",
      "outputs": [],
      "payable": false,
      "stateMutability": "nonpayable",
      "type": "function"
    },
    {
      "constant": false,
      "inputs": [
        {
          "name": "_patientAddress",
          "type": "address"
        },
        {
          "name": "_hospital",
          "type": "address"
        },
        {
          "name": "_admissionDate",
          "type": "uint256"
        },
        {
          "name": "_dischargeDate",
          "type": "uint256"
        },
        {
          "name": "_visitReason",
          "type": "uint256"
        }
      ],
      "name": "addRecord",
      "outputs": [],
      "payable": false,
      "stateMutability": "nonpayable",
      "type": "function"
    },
    {
      "constant": false,
      "inputs": [
        {
          "name": "_recordID",
          "type": "uint256"
        },
        {
          "name": "_name",
          "type": "string"
        }
      ],
      "name": "addName",
      "outputs": [],
      "payable": false,
      "stateMutability": "nonpayable",
      "type": "function"
    },
    {
      "constant": true,
      "inputs": [
        {
          "name": "_recordID",
          "type": "uint256"
        },
        {
          "name": "_patientAddress",
          "type": "address"
        }
      ],
      "name": "getRecord",
      "outputs": [
        {
          "name": "_name",
          "type": "string"
        },
        {
          "name": "_hospital",
          "type": "address"
        },
        {
          "name": "_admissionDate",
          "type": "uint256"
        },
        {
          "name": "_dischargeDate",
          "type": "uint256"
        },
        {
          "name": "_visitReason",
          "type": "uint256"
        }
      ],
      "payable": false,
      "stateMutability": "view",
      "type": "function"
    },
    {
      "constant": true,
      "inputs": [
        {
          "name": "_name",
          "type": "string"
        }
      ],
      "name": "getRecordByName",
      "outputs": [
        {
          "name": "numberOfRecords",
          "type": "uint256"
        }
      ],
      "payable": false,
      "stateMutability": "view",
      "type": "function"
    },
    {
      "constant": true,
      "inputs": [
        {
          "name": "from",
          "type": "uint256"
        },
        {
          "name": "to",
          "type": "uint256"
        }
      ],
      "name": "getCurrentPatients",
      "outputs": [
        {
          "name": "_numberOfPatients",
          "type": "uint256"
        }
      ],
      "payable": false,
      "stateMutability": "view",
      "type": "function"
    }
  ],
  "bytecode": "0x6060604052600060065534156200001557600080fd5b6040516200138d3803806200138d8339810160405280805182019190602001805160008054600160a060020a03191633600160a060020a031617815592019190508251603281111580156200006957508015155b15156200007557600080fd5b8251603281111580156200008857508015155b15156200009457600080fd5b600092505b8451831015620001655760026000868581518110620000b457fe5b90602001906020020151600160a060020a0316815260208101919091526040016000205460ff16158015620001075750848381518110620000f157fe5b90602001906020020151600160a060020a031615155b15156200011357600080fd5b6001600260008786815181106200012657fe5b90602001906020020151600160a060020a031681526020810191909152604001600020805460ff19169115159190911790556001929092019162000099565b600092505b83518310156200023557600160008585815181106200018557fe5b90602001906020020151600160a060020a0316815260208101919091526040016000205460ff16158015620001d85750838381518110620001c257fe5b90602001906020020151600160a060020a031615155b1515620001e457600080fd5b6001806000868681518110620001f657fe5b90602001906020020151600160a060020a031681526020810191909152604001600020805460ff1916911515919091179055600192909201916200016a565b5050505050611143806200024a6000396000f3006060604052600436106100da5763ffffffff7c01000000000000000000000000000000000000000000000000000000006000350416631450d12b81146101235780631b470bc714610179578063337e9f4a146101985780635d85fa62146101fb5780636d263ceb1461021457806377163c1d146102335780637d0d62571461024657806382d8185c146102655780638da5cb5b1461032d5780638f9c79ed1461035c578063900407bc1461038f578063a9698906146103a2578063bdf6c673146103c1578063ddd15e87146103e0578063f2fde38b1461040e575b60003411156101215733600160a060020a03167fe1fffcc4923d04b559f4d29a8bfc6cda04eb5b0d3c460751c2402c5c5cc9109c3460405190815260200160405180910390a25b005b341561012e57600080fd5b610121600480359060446024803590810190830135806020601f8201819004810201604051908101604052818152929190602084018383808284375094965061042d95505050505050565b341561018457600080fd5b610121600160a060020a0360043516610618565b34156101a357600080fd5b6101e960046024813581810190830135806020601f8201819004810201604051908101604052818152929190602084018383808284375094965061070195505050505050565b60405190815260200160405180910390f35b341561020657600080fd5b6101e9600435602435610841565b341561021f57600080fd5b610121600160a060020a03600435166108d0565b341561023e57600080fd5b6101e96109bb565b341561025157600080fd5b610121600160a060020a03600435166109c0565b341561027057600080fd5b610287600435600160a060020a0360243516610a67565b604051808060200186600160a060020a0316600160a060020a03168152602001858152602001848152602001838152602001828103825287818151815260200191508051906020019080838360005b838110156102ee5780820151838201526020016102d6565b50505050905090810190601f16801561031b5780820380516001836020036101000a031916815260200191505b50965050505050505060405180910390f35b341561033857600080fd5b610340610d3a565b604051600160a060020a03909116815260200160405180910390f35b341561036757600080fd5b61037b600160a060020a0360043516610d49565b604051901515815260200160405180910390f35b341561039a57600080fd5b6101e9610d5e565b34156103ad57600080fd5b610121600160a060020a0360043516610d64565b34156103cc57600080fd5b61037b600160a060020a0360043516610e0b565b34156103eb57600080fd5b610121600160a060020a0360043581169060243516604435606435608435610e20565b341561041957600080fd5b610121600160a060020a0360043516610fcf565b33600160a060020a03811660009081526001602052604081205490919060ff16151561045857600080fd5b6000848152600360209081526040808320600160a060020a0333811680865291909352922060020154869291161461048f57600080fd5b600085815260036020818152604080842033600160a060020a038181168752919093529320909101548792168015156104c757600080fd5b866104d061106a565b5080805115156104df57600080fd5b60008a8152600360209081526040808320600160a060020a03331684529091529020805460ff1916600190811782550189805161052092916020019061107c565b5060008a8152600360208181526040808420600160a060020a03338116865290835281852090930154909216808452600590915291819020919950600191908b90518082805190602001908083835b6020831061058e5780518252601f19909201916020918201910161056f565b6001836020036101000a038019825116818451168082178552505050505050905001915050908152602001604051908190039020805490910190557ff961dcbb7de5f5ad2d484ef309a56b535546c0b93a13c509af81775c0f1afec88a33604051918252600160a060020a031660208201526040908101905180910390a150505050505050505050565b60005433600160a060020a0390811691161461063357600080fd5b600160a060020a038116600090815260026020526040902054819060ff161561065b57600080fd5b600160a060020a038216600090815260016020526040902054829060ff161561068357600080fd5b82600160a060020a038116151561069957600080fd5b600160a060020a03841660009081526002602052604090819020805460ff191660011790557f287ab756b8d47062a978ed6e40674fb341af71a7b67a1c47d68c41816e77f71090859051600160a060020a03909116815260200160405180910390a150505050565b33600160a060020a03811660009081526002602052604081205490919060ff16151561072c57600080fd5b600160a060020a03331660009081526005602052604090819020908490518082805190602001908083835b602083106107765780518252601f199092019160209182019101610757565b6001836020036101000a038019825116818451168082178552505050505050905001915050908152602001604051908190039020541561083657600160a060020a03331660009081526005602052604090819020908490518082805190602001908083835b602083106107fa5780518252601f1990920191602091820191016107db565b6001836020036101000a03801982511681845116808217855250505050505090500191505090815260200160405190819003902054915061083b565b600091505b50919050565b33600160a060020a0381166000908152600260205260408120549091829160ff16151561086d57600080fd5b60009250600091505b6006548210156108c8576000828152600460205260409020548590108015906108b15750600082815260046020526040902060010154849011155b156108bd576001830192505b600190910190610876565b505092915050565b60005433600160a060020a039081169116146108eb57600080fd5b600160a060020a038116600090815260016020526040902054819060ff161561091357600080fd5b600160a060020a038216600090815260026020526040902054829060ff161561093b57600080fd5b82600160a060020a038116151561095157600080fd5b600160a060020a038416600090815260016020819052604091829020805460ff191690911790557ff75424a59c353b95f24d9c0d7860f6092d93693015907a3e3686dad567659ed990859051600160a060020a03909116815260200160405180910390a150505050565b603281565b60005433600160a060020a039081169116146109db57600080fd5b600160a060020a038116600090815260016020526040902054819060ff161515610a0457600080fd5b600160a060020a03821660009081526001602052604090819020805460ff191690557fd00d169b387ed019da2c547c0301001cb83f928efec4dac9146387fabe162ccb90839051600160a060020a03909116815260200160405180910390a15050565b610a6f61106a565b6000838152600360208181526040808420600160a060020a03808816865292528320909101548291829182918891889116801515610aac57600080fd5b60008a8152600360209081526040808320600160a060020a038d1684529091529020548a908a9060ff161515600114610ae457600080fd5b8b8b33600160a060020a031660036000848152602001908152602001600020600083600160a060020a0316600160a060020a0316815260200190815260200160002060030160009054906101000a9004600160a060020a0316600160a060020a0316141515610b5257600080fd5b600360008f815260200190815260200160002060008e600160a060020a0316600160a060020a031681526020019081526020016000206001018054600181600116156101000203166002900480601f016020809104026020016040519081016040528092919081815260200182805460018160011615610100020316600290048015610c1f5780601f10610bf457610100808354040283529160200191610c1f565b820191906000526020600020905b815481529060010190602001808311610c0257829003601f168201915b50505050509b50600360008f815260200190815260200160002060008e600160a060020a0316600160a060020a0316815260200190815260200160002060030160009054906101000a9004600160a060020a03169a50600360008f815260200190815260200160002060008e600160a060020a0316600160a060020a03168152602001908152602001600020600401549950600360008f815260200190815260200160002060008e600160a060020a0316600160a060020a03168152602001908152602001600020600501549850600360008f815260200190815260200160002060008e600160a060020a0316600160a060020a03168152602001908152602001600020600601549750505050505050509295509295909350565b600054600160a060020a031681565b60016020526000908152604090205460ff1681565b60065481565b60005433600160a060020a03908116911614610d7f57600080fd5b600160a060020a038116600090815260026020526040902054819060ff161515610da857600080fd5b600160a060020a03821660009081526002602052604090819020805460ff191690557fbfb48ce53ec1045d105aa1e3d52a1e02185802cf0f94b31ce88866cffb0bf4ce90839051600160a060020a03909116815260200160405180910390a15050565b60026020526000908152604090205460ff1681565b60005433600160a060020a03908116911614610e3b57600080fd5b600160a060020a038516600090815260016020526040902054859060ff161515610e6457600080fd5b600160a060020a038516600090815260026020526040902054859060ff161515610e8d57600080fd5b600680546000908152600360208181526040808420600160a060020a038d8116808752918452828620805460ff19169055865486528484528286208287528452828620600201805473ffffffffffffffffffffffffffffffffffffffff19908116841790915587548752858552838720838852855283872086018054909116918e1691909117905585548552838352818520818652835281852060049081018c90558654865284845282862082875284528286206005018b9055865486529383528185209085528252808420850188905584548452919052808220889055825482529081902060010186905590547f1b2cf9192ff159a0857f42005efa4d396207762041b02376140ce1011888db2491899051918252600160a060020a031660208201526040908101905180910390a150506006805460010190555050505050565b60005433600160a060020a03908116911614610fea57600080fd5b600160a060020a0381161515610fff57600080fd5b600054600160a060020a0380831691167f8be0079c531659141344cd1fd0a4f28419497f9722a3daafe3b4186f6b6457e060405160405180910390a36000805473ffffffffffffffffffffffffffffffffffffffff1916600160a060020a0392909216919091179055565b60206040519081016040526000815290565b828054600181600116156101000203166002900490600052602060002090601f016020900481019282601f106110bd57805160ff19168380011785556110ea565b828001600101855582156110ea579182015b828111156110ea5782518255916020019190600101906110cf565b506110f69291506110fa565b5090565b61111491905b808211156110f65760008155600101611100565b905600a165627a7a7230582024d0443503a5cb48d81f80637417438c4266db98ebf7fb4fc50a4fcb2c63b0250029",
  "source": "pragma solidity ^0.4.21;\n\n/// @title PatientRecords\n/// @author Nicolas Frega - <frega.nicolas@gmail.com>\n/// Allows Medical Record System to maintain records of patients in their network.\n/// Records can be accessed by Hospitals if and only if patient provides name.\n\nimport 'zeppelin-solidity/contracts/ownership/Ownable.sol';\nimport 'zeppelin-solidity/contracts/math/SafeMath.sol';\n\ncontract PatientRecords is Ownable {\n  using SafeMath for uint256;\n\n    /*\n    * Events\n    */\n    event Deposit(address indexed sender, uint256 value);\n    event HospitalAddition(address hospital);\n    event HospitalRemoval(address hospital);\n    event PatientAddition(address patient);\n    event PatientRemoval(address patient);\n    event PatientRecordAdded(uint256 recordID, address patientAddress);\n    event NameAddedToRecords(uint256 recordID, address patientAddress);\n\n    /*\n    * Constans\n    */\n    uint constant public MAX_COUNT = 50;\n\n    /*\n    * Storage\n    */\n    mapping (address => bool) public isPatient;\n    mapping (address => bool) public isHospital;\n    mapping (uint256 => mapping (address => Records)) records;\n    mapping (uint256 => dateRange) dateRanges;\n    mapping (address => mapping (string => uint256)) mappingByName;\n    uint256 public recordCount = 0;\n\n    struct Records {\n        bool providedName;\n        string name;\n        address patient;\n        address hospital;\n        uint256 admissionDate;\n        uint256 dischargeDate;\n        uint256 visitReason;\n    }\n\n    struct dateRange {\n      uint256 admissionDate;\n      uint256 dischargeDate;\n    }\n\n    /*\n    * Modifiers\n    */\n    modifier validParameters(uint count) {\n        require(count <= MAX_COUNT\n            && count != 0);\n        _;\n    }\n\n    modifier hospitalDoesNotExist(address hospital) {\n        require(!isHospital[hospital]);\n        _;\n    }\n\n    modifier hospitalExist(address hospital) {\n        require(isHospital[hospital]);\n        _;\n    }\n\n    modifier patientDoesNotExist(address patient) {\n        require(!isPatient[patient]);\n        _;\n    }\n\n    modifier patientExist(address patient) {\n        require(isPatient[patient]);\n        _;\n    }\n\n    modifier notNull(address _address) {\n        require(_address != 0);\n        _;\n    }\n\n    modifier notEmpty(string name) {\n        bytes memory tempString = bytes(name);\n        require(tempString.length != 0);\n        _;\n    }\n\n    modifier onlyPatient(uint256 recordId) {\n        require(records[recordId][msg.sender].patient == msg.sender);\n        _;\n    }\n\n    modifier onlyHospital(uint256 recordId, address _patientAddress) {\n      require(records[recordId][_patientAddress].hospital == msg.sender);\n      _;\n    }\n\n    modifier recordExists(uint256 recordId, address patientAddress) {\n        address _hospital = records[recordId][patientAddress].hospital;\n        require(_hospital != 0x0);\n        _;\n    }\n\n    modifier patientProvidedName(uint256 recordId, address patient) {\n      require(records[recordId][patient].providedName == true);\n      _;\n    }\n\n\n\n    /// @dev Fallback function allows to deposit ether.\n    function()\n        public\n        payable\n    {\n        if (msg.value > 0)\n            emit Deposit(msg.sender, msg.value);\n    }\n\n    /*\n     * Public functions\n     */\n    /// @dev Contract constructor sets initial hospitals and patients.\n    /// @param _hospitals Address array of initial hospitals.\n    /// @param _patients Address array of initial patients\n    function PatientRecords(address[] _hospitals, address[] _patients)\n        public\n        validParameters(_hospitals.length)\n        validParameters(_patients.length)\n    {\n        uint i;\n        for (i=0; i < _hospitals.length; i++) {\n            require(!isHospital[_hospitals[i]] && _hospitals[i] != 0);\n            isHospital[_hospitals[i]] = true;\n        }\n\n        for (i=0; i < _patients.length; i++) {\n            require(!isPatient[_patients[i]] && _patients[i] != 0);\n            isPatient[_patients[i]] = true;\n        }\n    }\n\n    /// @dev Allows to add a new hospital in the network.\n    /// @param _hospital Address of new hospital.\n    function addHospital(address _hospital)\n        public\n        onlyOwner\n        hospitalDoesNotExist(_hospital)\n        patientDoesNotExist(_hospital)\n        notNull(_hospital)\n    {\n        isHospital[_hospital] = true;\n        emit HospitalAddition(_hospital);\n    }\n\n    /// @dev Allows to remove a hospital in the network.\n    /// @param _hospital Address of hospital to remove.\n    function removeHospital(address _hospital)\n        public\n        onlyOwner\n        hospitalExist(_hospital)\n    {\n        isHospital[_hospital] = false;\n        emit HospitalRemoval(_hospital);\n    }\n\n    /// @dev Allows to add a new patient in the network.\n    /// @param _patient Address of new patient.\n    function addPatient(address _patient)\n        public\n        onlyOwner\n        patientDoesNotExist(_patient)\n        hospitalDoesNotExist(_patient)\n        notNull(_patient)\n    {\n        isPatient[_patient] = true;\n        emit PatientAddition(_patient);\n    }\n\n    /// @dev Allows to remove a patient in the network.\n    /// @param _patient Address of patient to remove.\n    function removePatient(address _patient)\n        public\n        onlyOwner\n        patientExist(_patient)\n    {\n        isPatient[_patient] = false;\n        emit PatientRemoval(_patient);\n    }\n\n    /// @dev Allows to add a patient record in the network.\n    /// @param _patientAddress address of the patient for record.\n    /// @param _hospital address of the hospital for record.\n    /// @param _admissionDate date of admission, simple uint.\n    /// @param _dischargeDate date of discharge, simple uint.\n    /// @param _visitReason internal code for reason for visit.\n    function addRecord (\n        address _patientAddress,\n        address _hospital,\n        uint256 _admissionDate,\n        uint256 _dischargeDate,\n        uint256 _visitReason)\n        public\n        onlyOwner\n        patientExist(_patientAddress)\n        hospitalExist(_hospital)\n    {\n        records[recordCount][_patientAddress].providedName = false;\n        records[recordCount][_patientAddress].patient = _patientAddress;\n        records[recordCount][_patientAddress].hospital = _hospital;\n        records[recordCount][_patientAddress].admissionDate = _admissionDate;\n        records[recordCount][_patientAddress].dischargeDate = _dischargeDate;\n        records[recordCount][_patientAddress].visitReason = _visitReason;\n\n        dateRanges[recordCount].admissionDate = _admissionDate;\n        dateRanges[recordCount].dischargeDate = _dischargeDate;\n\n        emit PatientRecordAdded(recordCount, _patientAddress);\n\n        recordCount += 1;\n    }\n\n    /// @dev Allows a patient to add their name to the record in the network.\n    /// @param _recordID ID of the patient specific record.\n    /// @param _name Name for the patient\n    function addName(uint256 _recordID, string _name)\n        public\n        patientExist(msg.sender)\n        onlyPatient(_recordID)\n        recordExists(_recordID, msg.sender)\n        notEmpty(_name)\n    {\n        records[_recordID][msg.sender].providedName = true;\n        records[_recordID][msg.sender].name = _name;\n        address hostpitalInRecord = records[_recordID][msg.sender].hospital;\n        mappingByName[hostpitalInRecord][_name] += 1;\n\n        emit NameAddedToRecords(_recordID, msg.sender);\n    }\n\n    /// @dev Allows a Hospital to retrieve the record for a patient.\n    /// @param _recordID ID of the patient specific record.\n    /// @param _patientAddress address of the patient for record.\n    function getRecord(uint _recordID, address _patientAddress)\n      public\n      recordExists(_recordID, _patientAddress)\n      patientProvidedName(_recordID, _patientAddress)\n      onlyHospital(_recordID, _patientAddress)\n      view\n      returns (\n        string _name,\n        address _hospital,\n        uint256 _admissionDate,\n        uint256 _dischargeDate,\n        uint256 _visitReason)\n      {\n         _name = records[_recordID][_patientAddress].name;\n         _hospital = records[_recordID][_patientAddress].hospital;\n         _admissionDate = records[_recordID][_patientAddress].admissionDate;\n         _dischargeDate = records[_recordID][_patientAddress].dischargeDate;\n         _visitReason = records[_recordID][_patientAddress].visitReason;\n      }\n\n      /// @dev Allows a Hospital to view the number of records for a patient.\n      /// @param _name Name for the patient\n      function getRecordByName(string _name)\n        public\n        hospitalExist(msg.sender)\n        view\n        returns (uint256 numberOfRecords)\n        {\n          if (mappingByName[msg.sender][_name] != 0) {\n            numberOfRecords = mappingByName[msg.sender][_name];\n            return numberOfRecords;\n          }\n          else\n            return 0;\n        }\n\n      /// @dev Allows a Hospital to view the number of patients on a given date range.\n      /// @param from Starting date\n      /// @param to Ending date\n      function getCurrentPatients(uint from, uint to)\n        public\n        hospitalExist(msg.sender)\n        view\n        returns (uint _numberOfPatients)\n      {\n        uint i;\n        _numberOfPatients = 0;\n        for(i=0; i<recordCount; i++) {\n          if(dateRanges[i].admissionDate >= from && dateRanges[i].dischargeDate <= to)\n            _numberOfPatients += 1;\n          }\n      }\n\n}\n",
  "sourcePath": "/home/nico/Desktop/public_repos/hospital_network/contracts/PatientRecords.sol",
  "compiler": {
    "name": "solc",
    "version": "0.4.21+commit.dfe3193c.Emscripten.clang"
  },
  "schemaVersion": "2.0.0",
  "updatedAt": "2018-04-11T02:40:33.161Z"
}