{
  "contractName": "PatientRecords",
  "abi": [
    {
      "constant": true,
      "inputs": [],
      "name": "springToken",
      "outputs": [
        {
          "name": "",
          "type": "address"
        }
      ],
      "payable": false,
      "stateMutability": "view",
      "type": "function"
    },
    {
      "constant": true,
      "inputs": [],
      "name": "MAX_COUNT",
      "outputs": [
        {
          "name": "",
          "type": "uint256"
        }
      ],
      "payable": false,
      "stateMutability": "view",
      "type": "function"
    },
    {
      "constant": true,
      "inputs": [],
      "name": "owner",
      "outputs": [
        {
          "name": "",
          "type": "address"
        }
      ],
      "payable": false,
      "stateMutability": "view",
      "type": "function"
    },
    {
      "constant": true,
      "inputs": [
        {
          "name": "",
          "type": "address"
        }
      ],
      "name": "isPatient",
      "outputs": [
        {
          "name": "",
          "type": "bool"
        }
      ],
      "payable": false,
      "stateMutability": "view",
      "type": "function"
    },
    {
      "constant": true,
      "inputs": [],
      "name": "recordCount",
      "outputs": [
        {
          "name": "",
          "type": "uint256"
        }
      ],
      "payable": false,
      "stateMutability": "view",
      "type": "function"
    },
    {
      "constant": true,
      "inputs": [],
      "name": "tokenRewardAmount",
      "outputs": [
        {
          "name": "",
          "type": "uint256"
        }
      ],
      "payable": false,
      "stateMutability": "view",
      "type": "function"
    },
    {
      "constant": true,
      "inputs": [],
      "name": "tokenAddress",
      "outputs": [
        {
          "name": "",
          "type": "address"
        }
      ],
      "payable": false,
      "stateMutability": "view",
      "type": "function"
    },
    {
      "constant": true,
      "inputs": [
        {
          "name": "",
          "type": "address"
        }
      ],
      "name": "isHospital",
      "outputs": [
        {
          "name": "",
          "type": "bool"
        }
      ],
      "payable": false,
      "stateMutability": "view",
      "type": "function"
    },
    {
      "constant": false,
      "inputs": [
        {
          "name": "tokens",
          "type": "address[]"
        }
      ],
      "name": "destroy",
      "outputs": [],
      "payable": false,
      "stateMutability": "nonpayable",
      "type": "function"
    },
    {
      "constant": false,
      "inputs": [
        {
          "name": "newOwner",
          "type": "address"
        }
      ],
      "name": "transferOwnership",
      "outputs": [],
      "payable": false,
      "stateMutability": "nonpayable",
      "type": "function"
    },
    {
      "inputs": [
        {
          "name": "_hospitals",
          "type": "address[]"
        },
        {
          "name": "_patients",
          "type": "address[]"
        }
      ],
      "payable": false,
      "stateMutability": "nonpayable",
      "type": "constructor"
    },
    {
      "payable": true,
      "stateMutability": "payable",
      "type": "fallback"
    },
    {
      "anonymous": false,
      "inputs": [
        {
          "indexed": true,
          "name": "sender",
          "type": "address"
        },
        {
          "indexed": false,
          "name": "value",
          "type": "uint256"
        }
      ],
      "name": "Deposit",
      "type": "event"
    },
    {
      "anonymous": false,
      "inputs": [
        {
          "indexed": false,
          "name": "hospital",
          "type": "address"
        }
      ],
      "name": "HospitalAddition",
      "type": "event"
    },
    {
      "anonymous": false,
      "inputs": [
        {
          "indexed": false,
          "name": "hospital",
          "type": "address"
        }
      ],
      "name": "HospitalRemoval",
      "type": "event"
    },
    {
      "anonymous": false,
      "inputs": [
        {
          "indexed": false,
          "name": "patient",
          "type": "address"
        }
      ],
      "name": "PatientAddition",
      "type": "event"
    },
    {
      "anonymous": false,
      "inputs": [
        {
          "indexed": false,
          "name": "patient",
          "type": "address"
        }
      ],
      "name": "PatientRemoval",
      "type": "event"
    },
    {
      "anonymous": false,
      "inputs": [
        {
          "indexed": false,
          "name": "recordID",
          "type": "uint256"
        },
        {
          "indexed": false,
          "name": "patientAddress",
          "type": "address"
        }
      ],
      "name": "PatientRecordAdded",
      "type": "event"
    },
    {
      "anonymous": false,
      "inputs": [
        {
          "indexed": false,
          "name": "recordID",
          "type": "uint256"
        },
        {
          "indexed": false,
          "name": "patientAddress",
          "type": "address"
        }
      ],
      "name": "NameAddedToRecords",
      "type": "event"
    },
    {
      "anonymous": false,
      "inputs": [
        {
          "indexed": false,
          "name": "tokenReward",
          "type": "uint256"
        }
      ],
      "name": "TokenRewardSet",
      "type": "event"
    },
    {
      "anonymous": false,
      "inputs": [
        {
          "indexed": false,
          "name": "patientAddress",
          "type": "address"
        }
      ],
      "name": "PatientPaid",
      "type": "event"
    },
    {
      "anonymous": false,
      "inputs": [
        {
          "indexed": true,
          "name": "previousOwner",
          "type": "address"
        },
        {
          "indexed": true,
          "name": "newOwner",
          "type": "address"
        }
      ],
      "name": "OwnershipTransferred",
      "type": "event"
    },
    {
      "constant": false,
      "inputs": [
        {
          "name": "_hospital",
          "type": "address"
        }
      ],
      "name": "addHospital",
      "outputs": [],
      "payable": false,
      "stateMutability": "nonpayable",
      "type": "function"
    },
    {
      "constant": false,
      "inputs": [
        {
          "name": "_hospital",
          "type": "address"
        }
      ],
      "name": "removeHospital",
      "outputs": [],
      "payable": false,
      "stateMutability": "nonpayable",
      "type": "function"
    },
    {
      "constant": false,
      "inputs": [
        {
          "name": "_patient",
          "type": "address"
        }
      ],
      "name": "addPatient",
      "outputs": [],
      "payable": false,
      "stateMutability": "nonpayable",
      "type": "function"
    },
    {
      "constant": false,
      "inputs": [
        {
          "name": "_patient",
          "type": "address"
        }
      ],
      "name": "removePatient",
      "outputs": [],
      "payable": false,
      "stateMutability": "nonpayable",
      "type": "function"
    },
    {
      "constant": false,
      "inputs": [
        {
          "name": "_patientAddress",
          "type": "address"
        },
        {
          "name": "_hospital",
          "type": "address"
        },
        {
          "name": "_admissionDate",
          "type": "uint256"
        },
        {
          "name": "_dischargeDate",
          "type": "uint256"
        },
        {
          "name": "_visitReason",
          "type": "uint256"
        }
      ],
      "name": "addRecord",
      "outputs": [],
      "payable": false,
      "stateMutability": "nonpayable",
      "type": "function"
    },
    {
      "constant": false,
      "inputs": [
        {
          "name": "_recordID",
          "type": "uint256"
        },
        {
          "name": "_name",
          "type": "string"
        }
      ],
      "name": "addName",
      "outputs": [],
      "payable": false,
      "stateMutability": "nonpayable",
      "type": "function"
    },
    {
      "constant": true,
      "inputs": [
        {
          "name": "_recordID",
          "type": "uint256"
        },
        {
          "name": "_patientAddress",
          "type": "address"
        }
      ],
      "name": "getRecord",
      "outputs": [
        {
          "name": "_name",
          "type": "string"
        },
        {
          "name": "_hospital",
          "type": "address"
        },
        {
          "name": "_admissionDate",
          "type": "uint256"
        },
        {
          "name": "_dischargeDate",
          "type": "uint256"
        },
        {
          "name": "_visitReason",
          "type": "uint256"
        }
      ],
      "payable": false,
      "stateMutability": "view",
      "type": "function"
    },
    {
      "constant": true,
      "inputs": [
        {
          "name": "_name",
          "type": "string"
        }
      ],
      "name": "getRecordByName",
      "outputs": [
        {
          "name": "numberOfRecords",
          "type": "uint256"
        }
      ],
      "payable": false,
      "stateMutability": "view",
      "type": "function"
    },
    {
      "constant": true,
      "inputs": [
        {
          "name": "from",
          "type": "uint256"
        },
        {
          "name": "to",
          "type": "uint256"
        }
      ],
      "name": "getCurrentPatients",
      "outputs": [
        {
          "name": "_numberOfPatients",
          "type": "uint256"
        }
      ],
      "payable": false,
      "stateMutability": "view",
      "type": "function"
    },
    {
      "constant": false,
      "inputs": [
        {
          "name": "_tokenReward",
          "type": "uint256"
        }
      ],
      "name": "setSpringTokenReward",
      "outputs": [],
      "payable": false,
      "stateMutability": "nonpayable",
      "type": "function"
    },
    {
      "constant": true,
      "inputs": [
        {
          "name": "_patientAddress",
          "type": "address"
        }
      ],
      "name": "getPatientBalance",
      "outputs": [
        {
          "name": "",
          "type": "uint256"
        }
      ],
      "payable": false,
      "stateMutability": "view",
      "type": "function"
    }
  ],
  "bytecode": "0x608060405260006007553480156200001657600080fd5b50604051620023a5380380620023a5833981016040528051602082015160008054600160a060020a03191633600160a060020a0316178155918301805190939190910191908190603281118015906200006e57508015155b15156200007a57600080fd5b8351603281111580156200008d57508015155b15156200009957600080fd5b600093505b85518410156200012a578584815181101515620000b757fe5b60209081029091010151600160a060020a03161515620000d657600080fd5b6001600360008887815181101515620000eb57fe5b602090810291909101810151600160a060020a03168252810191909152604001600020805460ff1916911515919091179055600193909301926200009e565b600093505b8451841015620001ff576003600086868151811015156200014c57fe5b6020908102909101810151600160a060020a031682528101919091526040016000205460ff16156200017d57600080fd5b84848151811015156200018c57fe5b60209081029091010151600160a060020a03161515620001ab57600080fd5b6001600260008787815181101515620001c057fe5b602090810291909101810151600160a060020a03168252810191909152604001600020805460ff1916911515919091179055600193909301926200012f565b6200023a6200020d62000329565b604051809103906000f0801580156200022a573d6000803e3d6000fd5b506401000000006200025f810204565b6103e892506200025383640100000000620002c2810204565b5050505050506200033a565b60005433600160a060020a039081169116146200027b57600080fd5b80600160a060020a03811615156200029257600080fd5b5060018054600160a060020a0319908116600160a060020a03938416179182905560098054929093169116179055565b60005433600160a060020a03908116911614620002de57600080fd5b8060008111620002ed57600080fd5b60088290556040805183815290517fe69c04680592296855fcdd3a9ba119cc285c237feb064b473d5891f5b7541ad29181900360200190a15050565b604051610a1b806200198a83390190565b611640806200034a6000396000f30060806040526004361061011c5763ffffffff7c01000000000000000000000000000000000000000000000000000000006000350416631450d12b81146101675780631b470bc7146101c557806323eb444e146101e6578063337e9f4a146101fe57806350000712146102695780635d85fa621461028a5780636d263ceb146102a55780636efa2531146102c657806377163c1d146102f75780637d0d62571461030c57806382d8185c1461032d5780638da5cb5b146103f75780638f9c79ed1461040c578063900407bc146104415780639c642d5d146104565780639d76ea581461046b578063a969890614610480578063bdf6c673146104a1578063c6786e5a146104c2578063ddd15e8714610517578063f2fde38b14610547575b600034111561016557604080513481529051600160a060020a033316917fe1fffcc4923d04b559f4d29a8bfc6cda04eb5b0d3c460751c2402c5c5cc9109c919081900360200190a25b005b34801561017357600080fd5b5060408051602060046024803582810135601f81018590048502860185019096528585526101659583359536956044949193909101919081908401838280828437509497506105689650505050505050565b3480156101d157600080fd5b50610165600160a060020a0360043516610786565b3480156101f257600080fd5b50610165600435610865565b34801561020a57600080fd5b506040805160206004803580820135601f81018490048402850184019095528484526102579436949293602493928401919081908401838280828437509497506108ca9650505050505050565b60408051918252519081900360200190f35b34801561027557600080fd5b50610257600160a060020a0360043516610a15565b34801561029657600080fd5b50610257600435602435610acb565b3480156102b157600080fd5b50610165600160a060020a0360043516610b58565b3480156102d257600080fd5b506102db610c37565b60408051600160a060020a039092168252519081900360200190f35b34801561030357600080fd5b50610257610c46565b34801561031857600080fd5b50610165600160a060020a0360043516610c4b565b34801561033957600080fd5b50610351600435600160a060020a0360243516610ce8565b604051808060200186600160a060020a0316600160a060020a03168152602001858152602001848152602001838152602001828103825287818151815260200191508051906020019080838360005b838110156103b85781810151838201526020016103a0565b50505050905090810190601f1680156103e55780820380516001836020036101000a031916815260200191505b50965050505050505060405180910390f35b34801561040357600080fd5b506102db610fb7565b34801561041857600080fd5b5061042d600160a060020a0360043516610fc6565b604080519115158252519081900360200190f35b34801561044d57600080fd5b50610257610fdb565b34801561046257600080fd5b50610257610fe1565b34801561047757600080fd5b506102db610fe7565b34801561048c57600080fd5b50610165600160a060020a0360043516610ff6565b3480156104ad57600080fd5b5061042d600160a060020a0360043516611093565b3480156104ce57600080fd5b5060408051602060048035808201358381028086018501909652808552610165953695939460249493850192918291850190849080828437509497506110a89650505050505050565b34801561052357600080fd5b50610165600160a060020a0360043581169060243516604435606435608435611249565b34801561055357600080fd5b50610165600160a060020a03600435166113ec565b33600160a060020a03811660009081526002602052604081205490919060ff16151561059357600080fd5b6000848152600460209081526040808320600160a060020a033381168086529190935292206002015486929116146105ca57600080fd5b600085815260046020908152604080832033600160a060020a0381811686529190935292206003015487921680151561060257600080fd5b865187908190151561061357600080fd5b60008a815260046020908152604080832033600160a060020a03811685529252909120548b919060ff161561064757600080fd5b60008c8152600460209081526040808320600160a060020a03331684528252909120805460ff1916600190811782558d5161068a939190920191908e0190611579565b5060008c8152600460209081526040808320600160a060020a0333811685529083528184206003015416808452600683529281902090518e51939d5060019391928f9282918401908083835b602083106106f55780518252601f1990920191602091820191016106d6565b51815160209384036101000a6000190180199092169116179052920194855250604051938490030190922080549390930190925550610735905033611484565b604080518d8152600160a060020a033316602082015281517ff961dcbb7de5f5ad2d484ef309a56b535546c0b93a13c509af81775c0f1afec8929181900390910190a1505050505050505050505050565b60005433600160a060020a039081169116146107a157600080fd5b600160a060020a038116600090815260036020526040902054819060ff16156107c957600080fd5b600160a060020a038216600090815260026020526040902054829060ff16156107f157600080fd5b82600160a060020a038116151561080757600080fd5b600160a060020a038416600081815260036020908152604091829020805460ff19166001179055815192835290517f287ab756b8d47062a978ed6e40674fb341af71a7b67a1c47d68c41816e77f7109281900390910190a150505050565b60005433600160a060020a0390811691161461088057600080fd5b806000811161088e57600080fd5b60088290556040805183815290517fe69c04680592296855fcdd3a9ba119cc285c237feb064b473d5891f5b7541ad29181900360200190a15050565b33600160a060020a03811660009081526003602052604081205490919060ff1615156108f557600080fd5b6006600033600160a060020a0316600160a060020a03168152602001908152602001600020836040518082805190602001908083835b6020831061094a5780518252601f19909201916020918201910161092b565b51815160209384036101000a6000190180199092169116179052920194855250604051938490030190922054159150610a0a9050576006600033600160a060020a0316600160a060020a03168152602001908152602001600020836040518082805190602001908083835b602083106109d45780518252601f1990920191602091820191016109b5565b51815160209384036101000a60001901801990921691161790529201948552506040519384900301909220549350610a0f915050565b600091505b50919050565b6000805433600160a060020a03908116911614610a3157600080fd5b600154604080517f70a08231000000000000000000000000000000000000000000000000000000008152600160a060020a038581166004830152915191909216916370a082319160248083019260209291908290030181600087803b158015610a9957600080fd5b505af1158015610aad573d6000803e3d6000fd5b505050506040513d6020811015610ac357600080fd5b505192915050565b33600160a060020a0381166000908152600360205260408120549091829160ff161515610af757600080fd5b60009250600091505b600754821015610b50576000828152600560205260409020548511801590610b3957506000828152600560205260409020600101548410155b15610b45576001830192505b600190910190610b00565b505092915050565b60005433600160a060020a03908116911614610b7357600080fd5b600160a060020a038116600090815260026020526040902054819060ff1615610b9b57600080fd5b600160a060020a038216600090815260036020526040902054829060ff1615610bc357600080fd5b82600160a060020a0381161515610bd957600080fd5b600160a060020a038416600081815260026020908152604091829020805460ff19166001179055815192835290517ff75424a59c353b95f24d9c0d7860f6092d93693015907a3e3686dad567659ed99281900390910190a150505050565b600154600160a060020a031681565b603281565b60005433600160a060020a03908116911614610c6657600080fd5b600160a060020a038116600090815260026020526040902054819060ff161515610c8f57600080fd5b600160a060020a038216600081815260026020908152604091829020805460ff19169055815192835290517fd00d169b387ed019da2c547c0301001cb83f928efec4dac9146387fabe162ccb9281900390910190a15050565b6000828152600460209081526040808320600160a060020a0380861685529252822060030154606092918291829182918891889116801515610d2957600080fd5b60008a8152600460209081526040808320600160a060020a038d1684529091529020548a908a9060ff161515600114610d6157600080fd5b8b8b33600160a060020a031660046000848152602001908152602001600020600083600160a060020a0316600160a060020a0316815260200190815260200160002060030160009054906101000a9004600160a060020a0316600160a060020a0316141515610dcf57600080fd5b600460008f815260200190815260200160002060008e600160a060020a0316600160a060020a031681526020019081526020016000206001018054600181600116156101000203166002900480601f016020809104026020016040519081016040528092919081815260200182805460018160011615610100020316600290048015610e9c5780601f10610e7157610100808354040283529160200191610e9c565b820191906000526020600020905b815481529060010190602001808311610e7f57829003601f168201915b50505050509b50600460008f815260200190815260200160002060008e600160a060020a0316600160a060020a0316815260200190815260200160002060030160009054906101000a9004600160a060020a03169a50600460008f815260200190815260200160002060008e600160a060020a0316600160a060020a03168152602001908152602001600020600401549950600460008f815260200190815260200160002060008e600160a060020a0316600160a060020a03168152602001908152602001600020600501549850600460008f815260200190815260200160002060008e600160a060020a0316600160a060020a03168152602001908152602001600020600601549750505050505050509295509295909350565b600054600160a060020a031681565b60026020526000908152604090205460ff1681565b60075481565b60085481565b600954600160a060020a031681565b60005433600160a060020a0390811691161461101157600080fd5b600160a060020a038116600090815260036020526040902054819060ff16151561103a57600080fd5b600160a060020a038216600081815260036020908152604091829020805460ff19169055815192835290517fbfb48ce53ec1045d105aa1e3d52a1e02185802cf0f94b31ce88866cffb0bf4ce9281900390910190a15050565b60036020526000908152604090205460ff1681565b600080548190819033600160a060020a039081169116146110c857600080fd5b600092505b835183101561123b5783838151811015156110e457fe5b90602001906020020151915081600160a060020a03166370a08231306040518263ffffffff167c01000000000000000000000000000000000000000000000000000000000281526004018082600160a060020a0316600160a060020a03168152602001915050602060405180830381600087803b15801561116457600080fd5b505af1158015611178573d6000803e3d6000fd5b505050506040513d602081101561118e57600080fd5b505160008054604080517fa9059cbb000000000000000000000000000000000000000000000000000000008152600160a060020a0392831660048201526024810185905290519394509085169263a9059cbb92604480840193602093929083900390910190829087803b15801561120457600080fd5b505af1158015611218573d6000803e3d6000fd5b505050506040513d602081101561122e57600080fd5b50506001909201916110cd565b600054600160a060020a0316ff5b60005433600160a060020a0390811691161461126457600080fd5b600160a060020a038516600090815260026020526040902054859060ff16151561128d57600080fd5b600160a060020a038516600090815260036020526040902054859060ff1615156112b657600080fd5b600780546000908152600460208181526040808420600160a060020a038d8116808752918452828620805460ff19169055865486528484528286208287528452828620600201805473ffffffffffffffffffffffffffffffffffffffff1990811684179091558754875285855283872083885285528387206003018054909116918e1691909117905585548552838352818520818652835281852084018b905585548552838352818520818652835281852060059081018b9055865486529383528185208186528352818520600601899055855485529282528084208a90558454845292839020600101889055925482519081529283015280517f1b2cf9192ff159a0857f42005efa4d396207762041b02376140ce1011888db249281900390910190a150506007805460010190555050505050565b60005433600160a060020a0390811691161461140757600080fd5b600160a060020a038116151561141c57600080fd5b60008054604051600160a060020a03808516939216917f8be0079c531659141344cd1fd0a4f28419497f9722a3daafe3b4186f6b6457e091a36000805473ffffffffffffffffffffffffffffffffffffffff1916600160a060020a0392909216919091179055565b80600160a060020a038116151561149a57600080fd5b600154600854604080517fa9059cbb000000000000000000000000000000000000000000000000000000008152600160a060020a03868116600483015260248201939093529051919092169163a9059cbb9160448083019260209291908290030181600087803b15801561150d57600080fd5b505af1158015611521573d6000803e3d6000fd5b505050506040513d602081101561153757600080fd5b505060408051600160a060020a038416815290517f9df4c71cebf5dfd9c3103e52a9041ab213921e254974debdd2f89456b1f080a79181900360200190a15050565b828054600181600116156101000203166002900490600052602060002090601f016020900481019282601f106115ba57805160ff19168380011785556115e7565b828001600101855582156115e7579182015b828111156115e75782518255916020019190600101906115cc565b506115f39291506115f7565b5090565b61161191905b808211156115f357600081556001016115fd565b905600a165627a7a723058207acc50e747d30b1aca6a8eedbee6a83063312f305e53cdfde81fc5f30395bf480029608060405234801561001057600080fd5b5060038054600160a060020a03191633600160a060020a031690811790915569021e19e0c9bab2400000600181905560008281526020818152604080832084905580519384525191927fddf252ad1be2c89b69c2b068fc378daa952ba7f163c4a11628f55a4df523b3ef929081900390910190a3610988806100936000396000f3006080604052600436106100cf5763ffffffff7c010000000000000000000000000000000000000000000000000000000060003504166306fdde0381146100d4578063095ea7b31461015e57806318160ddd1461019657806323b872dd146101bd5780632ff2e9dc146101e7578063313ce567146101fc578063661884631461022757806370a082311461024b5780638da5cb5b1461026c57806395d89b411461029d578063a9059cbb146102b2578063d73dd623146102d6578063dd62ed3e146102fa578063f2fde38b14610321575b600080fd5b3480156100e057600080fd5b506100e9610344565b6040805160208082528351818301528351919283929083019185019080838360005b8381101561012357818101518382015260200161010b565b50505050905090810190601f1680156101505780820380516001836020036101000a031916815260200191505b509250505060405180910390f35b34801561016a57600080fd5b50610182600160a060020a036004351660243561037b565b604080519115158252519081900360200190f35b3480156101a257600080fd5b506101ab6103e5565b60408051918252519081900360200190f35b3480156101c957600080fd5b50610182600160a060020a03600435811690602435166044356103eb565b3480156101f357600080fd5b506101ab61056b565b34801561020857600080fd5b50610211610579565b6040805160ff9092168252519081900360200190f35b34801561023357600080fd5b50610182600160a060020a036004351660243561057e565b34801561025757600080fd5b506101ab600160a060020a0360043516610677565b34801561027857600080fd5b50610281610692565b60408051600160a060020a039092168252519081900360200190f35b3480156102a957600080fd5b506100e96106a1565b3480156102be57600080fd5b50610182600160a060020a03600435166024356106d8565b3480156102e257600080fd5b50610182600160a060020a03600435166024356107d1565b34801561030657600080fd5b506101ab600160a060020a0360043581169060243516610873565b34801561032d57600080fd5b50610342600160a060020a036004351661089e565b005b60408051808201909152600b81527f537072696e67546f6b656e000000000000000000000000000000000000000000602082015281565b600160a060020a03338116600081815260026020908152604080832094871680845294825280832086905580518681529051929493927f8c5be1e5ebec7d5bd14f71427d1e84f3dd0314c0f7b2291e5b200ac8c7c3b925929181900390910190a350600192915050565b60015490565b6000600160a060020a038316151561040257600080fd5b600160a060020a03841660009081526020819052604090205482111561042757600080fd5b600160a060020a038085166000908152600260209081526040808320339094168352929052205482111561045a57600080fd5b600160a060020a038416600090815260208190526040902054610483908363ffffffff61093716565b600160a060020a0380861660009081526020819052604080822093909355908516815220546104b8908363ffffffff61094916565b600160a060020a03808516600090815260208181526040808320949094558783168252600281528382203390931682529190915220546104fe908363ffffffff61093716565b600160a060020a038086166000818152600260209081526040808320338616845282529182902094909455805186815290519287169391927fddf252ad1be2c89b69c2b068fc378daa952ba7f163c4a11628f55a4df523b3ef929181900390910190a35060019392505050565b69021e19e0c9bab240000081565b601281565b600160a060020a033381166000908152600260209081526040808320938616835292905290812054808311156105db57600160a060020a033381166000908152600260209081526040808320938816835292905290812055610612565b6105eb818463ffffffff61093716565b600160a060020a033381166000908152600260209081526040808320938916835292905220555b600160a060020a0333811660008181526002602090815260408083209489168084529482529182902054825190815291517f8c5be1e5ebec7d5bd14f71427d1e84f3dd0314c0f7b2291e5b200ac8c7c3b9259281900390910190a35060019392505050565b600160a060020a031660009081526020819052604090205490565b600354600160a060020a031681565b60408051808201909152600381527f5350540000000000000000000000000000000000000000000000000000000000602082015281565b6000600160a060020a03831615156106ef57600080fd5b600160a060020a03331660009081526020819052604090205482111561071457600080fd5b600160a060020a03331660009081526020819052604090205461073d908363ffffffff61093716565b600160a060020a033381166000908152602081905260408082209390935590851681522054610772908363ffffffff61094916565b600160a060020a03808516600081815260208181526040918290209490945580518681529051919333909316927fddf252ad1be2c89b69c2b068fc378daa952ba7f163c4a11628f55a4df523b3ef92918290030190a350600192915050565b600160a060020a033381166000908152600260209081526040808320938616835292905290812054610809908363ffffffff61094916565b600160a060020a0333811660008181526002602090815260408083209489168084529482529182902085905581519485529051929391927f8c5be1e5ebec7d5bd14f71427d1e84f3dd0314c0f7b2291e5b200ac8c7c3b9259281900390910190a350600192915050565b600160a060020a03918216600090815260026020908152604080832093909416825291909152205490565b60035433600160a060020a039081169116146108b957600080fd5b600160a060020a03811615156108ce57600080fd5b600354604051600160a060020a038084169216907f8be0079c531659141344cd1fd0a4f28419497f9722a3daafe3b4186f6b6457e090600090a36003805473ffffffffffffffffffffffffffffffffffffffff1916600160a060020a0392909216919091179055565b60008282111561094357fe5b50900390565b8181018281101561095657fe5b929150505600a165627a7a72305820f09e77a3379c5ad16f039020aee3cef32d35a1b607e7065dad83a7fb2997443e0029",
  "source": "pragma solidity ^0.4.21;\n\n/// @title PatientRecords\n/// @author Nicolas Frega - <frega.nicolas@gmail.com>\n/// Allows Medical Record System to maintain records of patients in their network.\n/// Records can be accessed by Hospitals if and only if patient provides name.\n/// Patients are rewarded with erc20 tokens for providing their name\n\nimport \"./InterfacePatientRecords.sol\";\nimport \"./SpringToken.sol\";\nimport \"./TokenDestructible.sol\";\nimport \"./SafeMath.sol\";\n\ncontract PatientRecords is InterfacePatientRecords, TokenDestructible {\n    using SafeMath for uint256;\n\n    /*\n    * Events\n    */\n    event Deposit(address indexed sender, uint256 value);\n    event HospitalAddition(address hospital);\n    event HospitalRemoval(address hospital);\n    event PatientAddition(address patient);\n    event PatientRemoval(address patient);\n    event PatientRecordAdded(uint256 recordID, address patientAddress);\n    event NameAddedToRecords(uint256 recordID, address patientAddress);\n    event TokenRewardSet(uint256 tokenReward);\n    event PatientPaid(address patientAddress);\n\n    /*\n    * Constans\n    */\n    uint constant public MAX_COUNT = 50;\n\n    /*\n    * Storage\n    */\n    SpringToken public springToken;\n    mapping (address => bool) public isPatient;\n    mapping (address => bool) public isHospital;\n    mapping (uint256 => mapping (address => Records)) records;\n    mapping (uint256 => dateRange) dateRanges;\n    mapping (address => mapping (string => uint256)) mappingByName;\n    uint256 public recordCount = 0;\n    uint256 public tokenRewardAmount;\n    address public tokenAddress;\n\n    struct Records {\n        bool providedName;\n        string name;\n        address patient;\n        address hospital;\n        uint256 admissionDate;\n        uint256 dischargeDate;\n        uint256 visitReason;\n    }\n\n    struct dateRange {\n        uint256 admissionDate;\n        uint256 dischargeDate;\n    }\n\n    /*\n    * Modifiers\n    */\n    modifier validParameters(uint count) {\n        require(count <= MAX_COUNT && count != 0);\n        _;\n    }\n\n    modifier hospitalDoesNotExist(address hospital) {\n        require(!isHospital[hospital]);\n        _;\n    }\n\n    modifier hospitalExist(address hospital) {\n        require(isHospital[hospital]);\n        _;\n    }\n\n    modifier patientDoesNotExist(address patient) {\n        require(!isPatient[patient]);\n        _;\n    }\n\n    modifier patientExist(address patient) {\n        require(isPatient[patient]);\n        _;\n    }\n\n    modifier notNull(address _address) {\n        require(_address != 0);\n        _;\n    }\n\n    modifier notEmpty(string name) {\n        bytes memory tempString = bytes(name);\n        require(tempString.length != 0);\n        _;\n    }\n\n    modifier onlyPatient(uint256 recordId) {\n        require(records[recordId][msg.sender].patient == msg.sender);\n        _;\n    }\n\n    modifier onlyHospital(uint256 recordId, address _patientAddress) {\n        require(records[recordId][_patientAddress].hospital == msg.sender);\n        _;\n    }\n\n    modifier recordExists(uint256 recordId, address patientAddress) {\n        address _hospital = records[recordId][patientAddress].hospital;\n        require(_hospital != 0x0);\n        _;\n    }\n\n    modifier patientProvidedName(uint256 recordId, address patient) {\n        require(records[recordId][patient].providedName == true);\n        _;\n    }\n\n    modifier patientNotProvidedName(uint256 recordId, address patient) {\n        require(records[recordId][patient].providedName == false);\n        _;\n    }\n\n    modifier higherThanZero(uint256 _uint) {\n        require(_uint > 0);\n        _;\n    }\n\n    /// @dev Fallback function allows to deposit ether.\n    function()\n        public\n        payable\n    {\n        if (msg.value > 0) {\n            emit Deposit(msg.sender, msg.value);\n          }\n    }\n\n    /*\n     * Public functions\n     */\n    /// @dev Contract constructor sets initial hospitals and patients.\n    /// @param _hospitals Address array of initial hospitals.\n    /// @param _patients Address array of initial patients\n    constructor(address[] _hospitals, address[] _patients)\n        public\n        validParameters(_hospitals.length)\n        validParameters(_patients.length)\n    {\n        uint i;\n        for (i = 0; i < _hospitals.length; i++) {\n            require(_hospitals[i] != 0x0);\n            isHospital[_hospitals[i]] = true;\n        }\n\n        for (i = 0; i < _patients.length; i++) {\n            require(!isHospital[_patients[i]]);\n            require(_patients[i] != 0x0);\n            isPatient[_patients[i]] = true;\n        }\n\n        setSpringToken(new SpringToken());\n        uint256 initialReward = 1000;\n        setSpringTokenReward(initialReward);\n    }\n\n    /// @dev Allows to add a new hospital in the network.\n    /// @param _hospital Address of new hospital.\n    function addHospital(address _hospital)\n        public\n        onlyOwner\n        hospitalDoesNotExist(_hospital)\n        patientDoesNotExist(_hospital)\n        notNull(_hospital)\n    {\n        isHospital[_hospital] = true;\n        emit HospitalAddition(_hospital);\n    }\n\n    /// @dev Allows to remove a hospital in the network.\n    /// @param _hospital Address of hospital to remove.\n    function removeHospital(address _hospital)\n        public\n        onlyOwner\n        hospitalExist(_hospital)\n    {\n        isHospital[_hospital] = false;\n        emit HospitalRemoval(_hospital);\n    }\n\n    /// @dev Allows to add a new patient in the network.\n    /// @param _patient Address of new patient.\n    function addPatient(address _patient)\n        public\n        onlyOwner\n        patientDoesNotExist(_patient)\n        hospitalDoesNotExist(_patient)\n        notNull(_patient)\n    {\n        isPatient[_patient] = true;\n        emit PatientAddition(_patient);\n    }\n\n    /// @dev Allows to remove a patient in the network.\n    /// @param _patient Address of patient to remove.\n    function removePatient(address _patient)\n        public\n        onlyOwner\n        patientExist(_patient)\n    {\n        isPatient[_patient] = false;\n        emit PatientRemoval(_patient);\n    }\n\n    /// @dev Allows to add a patient record in the network.\n    /// @param _patientAddress address of the patient for record.\n    /// @param _hospital address of the hospital for record.\n    /// @param _admissionDate date of admission, simple uint.\n    /// @param _dischargeDate date of discharge, simple uint.\n    /// @param _visitReason internal code for reason for visit.\n    function addRecord (\n        address _patientAddress,\n        address _hospital,\n        uint256 _admissionDate,\n        uint256 _dischargeDate,\n        uint256 _visitReason)\n        public\n        onlyOwner\n        patientExist(_patientAddress)\n        hospitalExist(_hospital)\n    {\n        records[recordCount][_patientAddress].providedName = false;\n        records[recordCount][_patientAddress].patient = _patientAddress;\n        records[recordCount][_patientAddress].hospital = _hospital;\n        records[recordCount][_patientAddress].admissionDate = _admissionDate;\n        records[recordCount][_patientAddress].dischargeDate = _dischargeDate;\n        records[recordCount][_patientAddress].visitReason = _visitReason;\n\n        dateRanges[recordCount].admissionDate = _admissionDate;\n        dateRanges[recordCount].dischargeDate = _dischargeDate;\n\n        emit PatientRecordAdded(recordCount, _patientAddress);\n\n        recordCount += 1;\n    }\n\n    /// @dev Allows a patient to add their name to the record in the network.\n    /// @param _recordID ID of the patient specific record.\n    /// @param _name Name for the patient\n    function addName(uint256 _recordID, string _name)\n        public\n        patientExist(msg.sender)\n        onlyPatient(_recordID)\n        recordExists(_recordID, msg.sender)\n        notEmpty(_name)\n        patientNotProvidedName(_recordID, msg.sender)\n    {\n        records[_recordID][msg.sender].providedName = true;\n        records[_recordID][msg.sender].name = _name;\n        address hostpitalInRecord = records[_recordID][msg.sender].hospital;\n        mappingByName[hostpitalInRecord][_name] += 1;\n\n        payPatient(msg.sender);\n\n        emit NameAddedToRecords(_recordID, msg.sender);\n    }\n\n    /// @dev Allows a Hospital to retrieve the record for a patient.\n    /// @param _recordID ID of the patient specific record.\n    /// @param _patientAddress address of the patient for record.\n    function getRecord(uint _recordID, address _patientAddress)\n        public\n        recordExists(_recordID, _patientAddress)\n        patientProvidedName(_recordID, _patientAddress)\n        onlyHospital(_recordID, _patientAddress)\n        view\n        returns (\n            string _name,\n            address _hospital,\n            uint256 _admissionDate,\n            uint256 _dischargeDate,\n            uint256 _visitReason\n        )\n    {\n        _name = records[_recordID][_patientAddress].name;\n        _hospital = records[_recordID][_patientAddress].hospital;\n        _admissionDate = records[_recordID][_patientAddress].admissionDate;\n        _dischargeDate = records[_recordID][_patientAddress].dischargeDate;\n        _visitReason = records[_recordID][_patientAddress].visitReason;\n    }\n\n    /// @dev Allows a Hospital to view the number of records for a patient.\n    /// @param _name Name for the patient\n    function getRecordByName(string _name)\n        public\n        hospitalExist(msg.sender)\n        view\n        returns (uint256 numberOfRecords)\n    {\n        if (mappingByName[msg.sender][_name] != 0) {\n            numberOfRecords = mappingByName[msg.sender][_name];\n            return numberOfRecords;\n        }\n        else\n            return 0;\n    }\n\n    /// @dev Allows a Hospital to view the number of patients on a given date range.\n    /// @param from Starting date\n    /// @param to Ending date\n    function getCurrentPatients(uint from, uint to)\n        public\n        hospitalExist(msg.sender)\n        view\n        returns (uint _numberOfPatients)\n    {\n        uint i;\n        _numberOfPatients = 0;\n        for(i = 0; i < recordCount; i++) {\n            if(dateRanges[i].admissionDate >= from && dateRanges[i].dischargeDate <= to)\n            _numberOfPatients += 1;\n        }\n    }\n\n    /// @dev sets the amount of Spring token rewards for providing name.\n    /// @param _tokenReward Amount of tokens to reward patient.\n    function setSpringTokenReward(uint256 _tokenReward)\n        public\n        onlyOwner\n        higherThanZero(_tokenReward)\n    {\n        tokenRewardAmount = _tokenReward;\n        emit TokenRewardSet(_tokenReward);\n    }\n\n    /// @dev gets the balance of patient.\n    /// @param _patientAddress address of patient.\n    /// @return Returns patient balance.\n    function getPatientBalance(address _patientAddress)\n        public\n        onlyOwner\n        view\n        returns (uint256)\n    {\n        return springToken.balanceOf(_patientAddress);\n    }\n\n    /*\n    * Internal functions\n    */\n    /// @dev sets the patient token reward contract.\n    /// @param _newspringToken Address of patient token.\n    function setSpringToken(address _newspringToken)\n        internal\n        onlyOwner\n        notNull(_newspringToken)\n    {\n        springToken = SpringToken(_newspringToken);\n        tokenAddress = address(springToken);\n    }\n\n    /// @dev pays a patient for providing their name.\n    /// @param _patientAddress to receive tokens.\n    function payPatient(address _patientAddress)\n        private\n        notNull(_patientAddress)\n    {\n        springToken.transfer(_patientAddress, tokenRewardAmount);\n        emit PatientPaid(_patientAddress);\n    }\n\n}\n",
  "sourcePath": "/home/nico/Desktop/public_repos/hospital_network/contracts/PatientRecords.sol",
  "compiler": {
    "name": "solc",
    "version": "0.4.23+commit.124ca40d.Emscripten.clang"
  },
  "schemaVersion": "2.0.0",
  "updatedAt": "2018-05-04T16:23:52.255Z"
}