{
  "contractName": "PatientRecords",
  "abi": [
    {
      "constant": true,
      "inputs": [],
      "name": "springToken",
      "outputs": [
        {
          "name": "",
          "type": "address"
        }
      ],
      "payable": false,
      "stateMutability": "view",
      "type": "function"
    },
    {
      "constant": true,
      "inputs": [],
      "name": "MAX_COUNT",
      "outputs": [
        {
          "name": "",
          "type": "uint256"
        }
      ],
      "payable": false,
      "stateMutability": "view",
      "type": "function"
    },
    {
      "constant": true,
      "inputs": [],
      "name": "owner",
      "outputs": [
        {
          "name": "",
          "type": "address"
        }
      ],
      "payable": false,
      "stateMutability": "view",
      "type": "function"
    },
    {
      "constant": true,
      "inputs": [
        {
          "name": "",
          "type": "address"
        }
      ],
      "name": "isPatient",
      "outputs": [
        {
          "name": "",
          "type": "bool"
        }
      ],
      "payable": false,
      "stateMutability": "view",
      "type": "function"
    },
    {
      "constant": true,
      "inputs": [],
      "name": "recordCount",
      "outputs": [
        {
          "name": "",
          "type": "uint256"
        }
      ],
      "payable": false,
      "stateMutability": "view",
      "type": "function"
    },
    {
      "constant": true,
      "inputs": [],
      "name": "tokenRewardAmount",
      "outputs": [
        {
          "name": "",
          "type": "uint256"
        }
      ],
      "payable": false,
      "stateMutability": "view",
      "type": "function"
    },
    {
      "constant": true,
      "inputs": [],
      "name": "tokenAddress",
      "outputs": [
        {
          "name": "",
          "type": "address"
        }
      ],
      "payable": false,
      "stateMutability": "view",
      "type": "function"
    },
    {
      "constant": true,
      "inputs": [
        {
          "name": "",
          "type": "address"
        }
      ],
      "name": "isHospital",
      "outputs": [
        {
          "name": "",
          "type": "bool"
        }
      ],
      "payable": false,
      "stateMutability": "view",
      "type": "function"
    },
    {
      "constant": false,
      "inputs": [
        {
          "name": "tokens",
          "type": "address[]"
        }
      ],
      "name": "destroy",
      "outputs": [],
      "payable": false,
      "stateMutability": "nonpayable",
      "type": "function"
    },
    {
      "constant": false,
      "inputs": [
        {
          "name": "newOwner",
          "type": "address"
        }
      ],
      "name": "transferOwnership",
      "outputs": [],
      "payable": false,
      "stateMutability": "nonpayable",
      "type": "function"
    },
    {
      "inputs": [
        {
          "name": "_hospitals",
          "type": "address[]"
        },
        {
          "name": "_patients",
          "type": "address[]"
        }
      ],
      "payable": false,
      "stateMutability": "nonpayable",
      "type": "constructor"
    },
    {
      "payable": true,
      "stateMutability": "payable",
      "type": "fallback"
    },
    {
      "anonymous": false,
      "inputs": [
        {
          "indexed": true,
          "name": "sender",
          "type": "address"
        },
        {
          "indexed": false,
          "name": "value",
          "type": "uint256"
        }
      ],
      "name": "Deposit",
      "type": "event"
    },
    {
      "anonymous": false,
      "inputs": [
        {
          "indexed": false,
          "name": "hospital",
          "type": "address"
        }
      ],
      "name": "HospitalAddition",
      "type": "event"
    },
    {
      "anonymous": false,
      "inputs": [
        {
          "indexed": false,
          "name": "hospital",
          "type": "address"
        }
      ],
      "name": "HospitalRemoval",
      "type": "event"
    },
    {
      "anonymous": false,
      "inputs": [
        {
          "indexed": false,
          "name": "patient",
          "type": "address"
        }
      ],
      "name": "PatientAddition",
      "type": "event"
    },
    {
      "anonymous": false,
      "inputs": [
        {
          "indexed": false,
          "name": "patient",
          "type": "address"
        }
      ],
      "name": "PatientRemoval",
      "type": "event"
    },
    {
      "anonymous": false,
      "inputs": [
        {
          "indexed": false,
          "name": "recordID",
          "type": "uint256"
        },
        {
          "indexed": false,
          "name": "patientAddress",
          "type": "address"
        }
      ],
      "name": "PatientRecordAdded",
      "type": "event"
    },
    {
      "anonymous": false,
      "inputs": [
        {
          "indexed": false,
          "name": "recordID",
          "type": "uint256"
        },
        {
          "indexed": false,
          "name": "patientAddress",
          "type": "address"
        }
      ],
      "name": "NameAddedToRecords",
      "type": "event"
    },
    {
      "anonymous": false,
      "inputs": [
        {
          "indexed": false,
          "name": "tokenReward",
          "type": "uint256"
        }
      ],
      "name": "TokenRewardSet",
      "type": "event"
    },
    {
      "anonymous": false,
      "inputs": [
        {
          "indexed": false,
          "name": "patientAddress",
          "type": "address"
        }
      ],
      "name": "PatientPaid",
      "type": "event"
    },
    {
      "anonymous": false,
      "inputs": [
        {
          "indexed": true,
          "name": "previousOwner",
          "type": "address"
        },
        {
          "indexed": true,
          "name": "newOwner",
          "type": "address"
        }
      ],
      "name": "OwnershipTransferred",
      "type": "event"
    },
    {
      "constant": false,
      "inputs": [
        {
          "name": "_hospital",
          "type": "address"
        }
      ],
      "name": "addHospital",
      "outputs": [],
      "payable": false,
      "stateMutability": "nonpayable",
      "type": "function"
    },
    {
      "constant": false,
      "inputs": [
        {
          "name": "_hospital",
          "type": "address"
        }
      ],
      "name": "removeHospital",
      "outputs": [],
      "payable": false,
      "stateMutability": "nonpayable",
      "type": "function"
    },
    {
      "constant": false,
      "inputs": [
        {
          "name": "_patient",
          "type": "address"
        }
      ],
      "name": "addPatient",
      "outputs": [],
      "payable": false,
      "stateMutability": "nonpayable",
      "type": "function"
    },
    {
      "constant": false,
      "inputs": [
        {
          "name": "_patient",
          "type": "address"
        }
      ],
      "name": "removePatient",
      "outputs": [],
      "payable": false,
      "stateMutability": "nonpayable",
      "type": "function"
    },
    {
      "constant": false,
      "inputs": [
        {
          "name": "_patientAddress",
          "type": "address"
        },
        {
          "name": "_hospital",
          "type": "address"
        },
        {
          "name": "_admissionDate",
          "type": "uint256"
        },
        {
          "name": "_dischargeDate",
          "type": "uint256"
        },
        {
          "name": "_visitReason",
          "type": "uint256"
        }
      ],
      "name": "addRecord",
      "outputs": [],
      "payable": false,
      "stateMutability": "nonpayable",
      "type": "function"
    },
    {
      "constant": false,
      "inputs": [
        {
          "name": "_recordID",
          "type": "uint256"
        },
        {
          "name": "_name",
          "type": "string"
        }
      ],
      "name": "addName",
      "outputs": [],
      "payable": false,
      "stateMutability": "nonpayable",
      "type": "function"
    },
    {
      "constant": true,
      "inputs": [
        {
          "name": "_recordID",
          "type": "uint256"
        },
        {
          "name": "_patientAddress",
          "type": "address"
        }
      ],
      "name": "getRecord",
      "outputs": [
        {
          "name": "_name",
          "type": "string"
        },
        {
          "name": "_hospital",
          "type": "address"
        },
        {
          "name": "_admissionDate",
          "type": "uint256"
        },
        {
          "name": "_dischargeDate",
          "type": "uint256"
        },
        {
          "name": "_visitReason",
          "type": "uint256"
        }
      ],
      "payable": false,
      "stateMutability": "view",
      "type": "function"
    },
    {
      "constant": true,
      "inputs": [
        {
          "name": "_name",
          "type": "string"
        }
      ],
      "name": "getRecordByName",
      "outputs": [
        {
          "name": "numberOfRecords",
          "type": "uint256"
        }
      ],
      "payable": false,
      "stateMutability": "view",
      "type": "function"
    },
    {
      "constant": true,
      "inputs": [
        {
          "name": "from",
          "type": "uint256"
        },
        {
          "name": "to",
          "type": "uint256"
        }
      ],
      "name": "getCurrentPatients",
      "outputs": [
        {
          "name": "_numberOfPatients",
          "type": "uint256"
        }
      ],
      "payable": false,
      "stateMutability": "view",
      "type": "function"
    },
    {
      "constant": false,
      "inputs": [
        {
          "name": "_tokenReward",
          "type": "uint256"
        }
      ],
      "name": "setSpringTokenReward",
      "outputs": [],
      "payable": false,
      "stateMutability": "nonpayable",
      "type": "function"
    },
    {
      "constant": true,
      "inputs": [
        {
          "name": "_patientAddress",
          "type": "address"
        }
      ],
      "name": "getPatientBalance",
      "outputs": [
        {
          "name": "",
          "type": "uint256"
        }
      ],
      "payable": false,
      "stateMutability": "view",
      "type": "function"
    }
  ],
  "bytecode": "0x6060604052600060075534156200001557600080fd5b604051620023c5380380620023c58339810160405280805182019190602001805160008054600160a060020a03191633600160a060020a03161781559201919050808351603281111580156200006a57508015155b15156200007657600080fd5b8351603281111580156200008957508015155b15156200009557600080fd5b600093505b85518410156200012257858481518110620000b157fe5b90602001906020020151600160a060020a03161515620000d057600080fd5b600160036000888781518110620000e357fe5b90602001906020020151600160a060020a031681526020810191909152604001600020805460ff1916911515919091179055600193909301926200009a565b600093505b8451841015620001f257600360008686815181106200014257fe5b90602001906020020151600160a060020a0316815260208101919091526040016000205460ff16156200017457600080fd5b8484815181106200018157fe5b90602001906020020151600160a060020a03161515620001a057600080fd5b600160026000878781518110620001b357fe5b90602001906020020151600160a060020a031681526020810191909152604001600020805460ff19169115159190911790556001939093019262000127565b6200022b620002006200031f565b604051809103906000f08015156200021757600080fd5b640100000000620015c96200025582021704565b6103e8925062000249836401000000006200083c620002b882021704565b50505050505062000330565b60005433600160a060020a039081169116146200027157600080fd5b80600160a060020a03811615156200028857600080fd5b5060018054600160a060020a0319908116600160a060020a03938416179182905560098054929093169116179055565b60005433600160a060020a03908116911614620002d457600080fd5b8060008111620002e357600080fd5b60088290557fe69c04680592296855fcdd3a9ba119cc285c237feb064b473d5891f5b7541ad28260405190815260200160405180910390a15050565b604051610a2280620019a383390190565b61166380620003406000396000f30060606040526004361061011c5763ffffffff7c01000000000000000000000000000000000000000000000000000000006000350416631450d12b81146101655780631b470bc7146101bb57806323eb444e146101da578063337e9f4a146101f057806350000712146102535780635d85fa62146102725780636d263ceb1461028b5780636efa2531146102aa57806377163c1d146102d95780637d0d6257146102ec57806382d8185c1461030b5780638da5cb5b146103d35780638f9c79ed146103e6578063900407bc146104195780639c642d5d1461042c5780639d76ea581461043f578063a969890614610452578063bdf6c67314610471578063c6786e5a14610490578063ddd15e87146104df578063f2fde38b1461050d575b60003411156101635733600160a060020a03167fe1fffcc4923d04b559f4d29a8bfc6cda04eb5b0d3c460751c2402c5c5cc9109c3460405190815260200160405180910390a25b005b341561017057600080fd5b610163600480359060446024803590810190830135806020601f8201819004810201604051908101604052818152929190602084018383808284375094965061052c95505050505050565b34156101c657600080fd5b610163600160a060020a0360043516610753565b34156101e557600080fd5b61016360043561083c565b34156101fb57600080fd5b61024160046024813581810190830135806020601f820181900481020160405190810160405281815292919060208401838380828437509496506108a195505050505050565b60405190815260200160405180910390f35b341561025e57600080fd5b610241600160a060020a03600435166109e1565b341561027d57600080fd5b610241600435602435610a82565b341561029657600080fd5b610163600160a060020a0360043516610b11565b34156102b557600080fd5b6102bd610bfa565b604051600160a060020a03909116815260200160405180910390f35b34156102e457600080fd5b610241610c09565b34156102f757600080fd5b610163600160a060020a0360043516610c0e565b341561031657600080fd5b61032d600435600160a060020a0360243516610cb5565b604051808060200186600160a060020a0316600160a060020a03168152602001858152602001848152602001838152602001828103825287818151815260200191508051906020019080838360005b8381101561039457808201518382015260200161037c565b50505050905090810190601f1680156103c15780820380516001836020036101000a031916815260200191505b50965050505050505060405180910390f35b34156103de57600080fd5b6102bd610f88565b34156103f157600080fd5b610405600160a060020a0360043516610f97565b604051901515815260200160405180910390f35b341561042457600080fd5b610241610fac565b341561043757600080fd5b610241610fb2565b341561044a57600080fd5b6102bd610fb8565b341561045d57600080fd5b610163600160a060020a0360043516610fc7565b341561047c57600080fd5b610405600160a060020a036004351661106e565b341561049b57600080fd5b610163600460248135818101908301358060208181020160405190810160405280939291908181526020018383602002808284375094965061108395505050505050565b34156104ea57600080fd5b610163600160a060020a03600435811690602435166044356064356084356111ec565b341561051857600080fd5b610163600160a060020a036004351661139c565b33600160a060020a03811660009081526002602052604081205490919060ff16151561055757600080fd5b6000848152600460209081526040808320600160a060020a0333811680865291909352922060020154869291161461058e57600080fd5b600085815260046020908152604080832033600160a060020a038181168652919093529220600301548792168015156105c657600080fd5b866105cf61151c565b5080805115156105de57600080fd5b60008a815260046020908152604080832033600160a060020a03811685529252909120548b919060ff161561061257600080fd5b60008c8152600460209081526040808320600160a060020a03331684529091529020805460ff191660019081178255018b805161065392916020019061152e565b5060008c8152600460209081526040808320600160a060020a0333811685529083528184206003015416808452600690925291829020909b506001918d90518082805190602001908083835b602083106106be5780518252601f19909201916020918201910161069f565b6001836020036101000a0380198251168184511680821785525050505050509050019150509081526020016040519081900390208054909101905561070233611437565b7ff961dcbb7de5f5ad2d484ef309a56b535546c0b93a13c509af81775c0f1afec88c33604051918252600160a060020a031660208201526040908101905180910390a1505050505050505050505050565b60005433600160a060020a0390811691161461076e57600080fd5b600160a060020a038116600090815260036020526040902054819060ff161561079657600080fd5b600160a060020a038216600090815260026020526040902054829060ff16156107be57600080fd5b82600160a060020a03811615156107d457600080fd5b600160a060020a03841660009081526003602052604090819020805460ff191660011790557f287ab756b8d47062a978ed6e40674fb341af71a7b67a1c47d68c41816e77f71090859051600160a060020a03909116815260200160405180910390a150505050565b60005433600160a060020a0390811691161461085757600080fd5b806000811161086557600080fd5b60088290557fe69c04680592296855fcdd3a9ba119cc285c237feb064b473d5891f5b7541ad28260405190815260200160405180910390a15050565b33600160a060020a03811660009081526003602052604081205490919060ff1615156108cc57600080fd5b600160a060020a03331660009081526006602052604090819020908490518082805190602001908083835b602083106109165780518252601f1990920191602091820191016108f7565b6001836020036101000a03801982511681845116808217855250505050505090500191505090815260200160405190819003902054156109d657600160a060020a03331660009081526006602052604090819020908490518082805190602001908083835b6020831061099a5780518252601f19909201916020918201910161097b565b6001836020036101000a0380198251168184511680821785525050505050509050019150509081526020016040519081900390205491506109db565b600091505b50919050565b6000805433600160a060020a039081169116146109fd57600080fd5b600154600160a060020a03166370a08231836040517c010000000000000000000000000000000000000000000000000000000063ffffffff8416028152600160a060020a039091166004820152602401602060405180830381600087803b1515610a6657600080fd5b5af11515610a7357600080fd5b50505060405180519392505050565b33600160a060020a0381166000908152600360205260408120549091829160ff161515610aae57600080fd5b60009250600091505b600754821015610b0957600082815260056020526040902054859010801590610af25750600082815260056020526040902060010154849011155b15610afe576001830192505b600190910190610ab7565b505092915050565b60005433600160a060020a03908116911614610b2c57600080fd5b600160a060020a038116600090815260026020526040902054819060ff1615610b5457600080fd5b600160a060020a038216600090815260036020526040902054829060ff1615610b7c57600080fd5b82600160a060020a0381161515610b9257600080fd5b600160a060020a03841660009081526002602052604090819020805460ff191660011790557ff75424a59c353b95f24d9c0d7860f6092d93693015907a3e3686dad567659ed990859051600160a060020a03909116815260200160405180910390a150505050565b600154600160a060020a031681565b603281565b60005433600160a060020a03908116911614610c2957600080fd5b600160a060020a038116600090815260026020526040902054819060ff161515610c5257600080fd5b600160a060020a03821660009081526002602052604090819020805460ff191690557fd00d169b387ed019da2c547c0301001cb83f928efec4dac9146387fabe162ccb90839051600160a060020a03909116815260200160405180910390a15050565b610cbd61151c565b6000838152600460209081526040808320600160a060020a03808716855292528220600301548291829182918891889116801515610cfa57600080fd5b60008a8152600460209081526040808320600160a060020a038d1684529091529020548a908a9060ff161515600114610d3257600080fd5b8b8b33600160a060020a031660046000848152602001908152602001600020600083600160a060020a0316600160a060020a0316815260200190815260200160002060030160009054906101000a9004600160a060020a0316600160a060020a0316141515610da057600080fd5b600460008f815260200190815260200160002060008e600160a060020a0316600160a060020a031681526020019081526020016000206001018054600181600116156101000203166002900480601f016020809104026020016040519081016040528092919081815260200182805460018160011615610100020316600290048015610e6d5780601f10610e4257610100808354040283529160200191610e6d565b820191906000526020600020905b815481529060010190602001808311610e5057829003601f168201915b50505050509b50600460008f815260200190815260200160002060008e600160a060020a0316600160a060020a0316815260200190815260200160002060030160009054906101000a9004600160a060020a03169a50600460008f815260200190815260200160002060008e600160a060020a0316600160a060020a03168152602001908152602001600020600401549950600460008f815260200190815260200160002060008e600160a060020a0316600160a060020a03168152602001908152602001600020600501549850600460008f815260200190815260200160002060008e600160a060020a0316600160a060020a03168152602001908152602001600020600601549750505050505050509295509295909350565b600054600160a060020a031681565b60026020526000908152604090205460ff1681565b60075481565b60085481565b600954600160a060020a031681565b60005433600160a060020a03908116911614610fe257600080fd5b600160a060020a038116600090815260036020526040902054819060ff16151561100b57600080fd5b600160a060020a03821660009081526003602052604090819020805460ff191690557fbfb48ce53ec1045d105aa1e3d52a1e02185802cf0f94b31ce88866cffb0bf4ce90839051600160a060020a03909116815260200160405180910390a15050565b60036020526000908152604090205460ff1681565b600080548190819033600160a060020a039081169116146110a357600080fd5b600092505b83518310156111de578383815181106110bd57fe5b90602001906020020151915081600160a060020a03166370a08231306040517c010000000000000000000000000000000000000000000000000000000063ffffffff8416028152600160a060020a039091166004820152602401602060405180830381600087803b151561113057600080fd5b5af1151561113d57600080fd5b5050506040518051600054909250600160a060020a03808516925063a9059cbb9116836040517c010000000000000000000000000000000000000000000000000000000063ffffffff8516028152600160a060020a0390921660048301526024820152604401602060405180830381600087803b15156111bc57600080fd5b5af115156111c957600080fd5b505050604051805150506001909201916110a8565b600054600160a060020a0316ff5b60005433600160a060020a0390811691161461120757600080fd5b600160a060020a038516600090815260026020526040902054859060ff16151561123057600080fd5b600160a060020a038516600090815260036020526040902054859060ff16151561125957600080fd5b600780546000908152600460208181526040808420600160a060020a038d8116808752918452828620805460ff19169055865486528484528286208287528452828620600201805473ffffffffffffffffffffffffffffffffffffffff1990811684179091558754875285855283872083885285528387206003018054909116918e1691909117905585548552838352818520818652835281852084018b905585548552838352818520818652835281852060059081018b905586548652938352818520908552825280842060060188905584548452919052808220889055825482529081902060010186905590547f1b2cf9192ff159a0857f42005efa4d396207762041b02376140ce1011888db2491899051918252600160a060020a031660208201526040908101905180910390a150506007805460010190555050505050565b60005433600160a060020a039081169116146113b757600080fd5b600160a060020a03811615156113cc57600080fd5b600054600160a060020a0380831691167f8be0079c531659141344cd1fd0a4f28419497f9722a3daafe3b4186f6b6457e060405160405180910390a36000805473ffffffffffffffffffffffffffffffffffffffff1916600160a060020a0392909216919091179055565b80600160a060020a038116151561144d57600080fd5b600154600854600160a060020a039091169063a9059cbb9084906040517c010000000000000000000000000000000000000000000000000000000063ffffffff8516028152600160a060020a0390921660048301526024820152604401602060405180830381600087803b15156114c357600080fd5b5af115156114d057600080fd5b50505060405180519050507f9df4c71cebf5dfd9c3103e52a9041ab213921e254974debdd2f89456b1f080a782604051600160a060020a03909116815260200160405180910390a15050565b60206040519081016040526000815290565b828054600181600116156101000203166002900490600052602060002090601f016020900481019282601f1061156f57805160ff191683800117855561159c565b8280016001018555821561159c579182015b8281111561159c578251825591602001919060010190611581565b506115a89291506115ac565b5090565b6115c691905b808211156115a857600081556001016115b2565b90565b60005433600160a060020a039081169116146115e457600080fd5b80600160a060020a03811615156115fa57600080fd5b506001805473ffffffffffffffffffffffffffffffffffffffff19908116600160a060020a039384161791829055600980549290931691161790555600a165627a7a7230582001fd8dabcb739651fd109aaabbfca1ee0e1afd22e82360cd89c39a0c7ab1117000296060604052341561000f57600080fd5b60038054600160a060020a03191633600160a060020a031690811790915569021e19e0c9bab2400000600181905560008281526020819052604080822083905590917fddf252ad1be2c89b69c2b068fc378daa952ba7f163c4a11628f55a4df523b3ef915190815260200160405180910390a3610991806100916000396000f3006060604052600436106100cf5763ffffffff7c010000000000000000000000000000000000000000000000000000000060003504166306fdde0381146100d4578063095ea7b31461015e57806318160ddd1461019457806323b872dd146101b95780632ff2e9dc146101e1578063313ce567146101f4578063661884631461021d57806370a082311461023f5780638da5cb5b1461025e57806395d89b411461028d578063a9059cbb146102a0578063d73dd623146102c2578063dd62ed3e146102e4578063f2fde38b14610309575b600080fd5b34156100df57600080fd5b6100e761032a565b60405160208082528190810183818151815260200191508051906020019080838360005b8381101561012357808201518382015260200161010b565b50505050905090810190601f1680156101505780820380516001836020036101000a031916815260200191505b509250505060405180910390f35b341561016957600080fd5b610180600160a060020a0360043516602435610361565b604051901515815260200160405180910390f35b341561019f57600080fd5b6101a76103cd565b60405190815260200160405180910390f35b34156101c457600080fd5b610180600160a060020a03600435811690602435166044356103d3565b34156101ec57600080fd5b6101a7610553565b34156101ff57600080fd5b610207610561565b60405160ff909116815260200160405180910390f35b341561022857600080fd5b610180600160a060020a0360043516602435610566565b341561024a57600080fd5b6101a7600160a060020a0360043516610660565b341561026957600080fd5b61027161067b565b604051600160a060020a03909116815260200160405180910390f35b341561029857600080fd5b6100e761068a565b34156102ab57600080fd5b610180600160a060020a03600435166024356106c1565b34156102cd57600080fd5b610180600160a060020a03600435166024356107d3565b34156102ef57600080fd5b6101a7600160a060020a0360043581169060243516610877565b341561031457600080fd5b610328600160a060020a03600435166108a2565b005b60408051908101604052600b81527f537072696e67546f6b656e000000000000000000000000000000000000000000602082015281565b600160a060020a03338116600081815260026020908152604080832094871680845294909152808220859055909291907f8c5be1e5ebec7d5bd14f71427d1e84f3dd0314c0f7b2291e5b200ac8c7c3b9259085905190815260200160405180910390a350600192915050565b60015490565b6000600160a060020a03831615156103ea57600080fd5b600160a060020a03841660009081526020819052604090205482111561040f57600080fd5b600160a060020a038085166000908152600260209081526040808320339094168352929052205482111561044257600080fd5b600160a060020a03841660009081526020819052604090205461046b908363ffffffff61093d16565b600160a060020a0380861660009081526020819052604080822093909355908516815220546104a0908363ffffffff61094f16565b600160a060020a03808516600090815260208181526040808320949094558783168252600281528382203390931682529190915220546104e6908363ffffffff61093d16565b600160a060020a03808616600081815260026020908152604080832033861684529091529081902093909355908516917fddf252ad1be2c89b69c2b068fc378daa952ba7f163c4a11628f55a4df523b3ef9085905190815260200160405180910390a35060019392505050565b69021e19e0c9bab240000081565b601281565b600160a060020a033381166000908152600260209081526040808320938616835292905290812054808311156105c357600160a060020a0333811660009081526002602090815260408083209388168352929052908120556105fa565b6105d3818463ffffffff61093d16565b600160a060020a033381166000908152600260209081526040808320938916835292905220555b600160a060020a0333811660008181526002602090815260408083209489168084529490915290819020547f8c5be1e5ebec7d5bd14f71427d1e84f3dd0314c0f7b2291e5b200ac8c7c3b925915190815260200160405180910390a35060019392505050565b600160a060020a031660009081526020819052604090205490565b600354600160a060020a031681565b60408051908101604052600381527f5350540000000000000000000000000000000000000000000000000000000000602082015281565b6000600160a060020a03831615156106d857600080fd5b600160a060020a0333166000908152602081905260409020548211156106fd57600080fd5b600160a060020a033316600090815260208190526040902054610726908363ffffffff61093d16565b600160a060020a03338116600090815260208190526040808220939093559085168152205461075b908363ffffffff61094f16565b60008085600160a060020a0316600160a060020a031681526020019081526020016000208190555082600160a060020a031633600160a060020a03167fddf252ad1be2c89b69c2b068fc378daa952ba7f163c4a11628f55a4df523b3ef8460405190815260200160405180910390a350600192915050565b600160a060020a03338116600090815260026020908152604080832093861683529290529081205461080b908363ffffffff61094f16565b600160a060020a0333811660008181526002602090815260408083209489168084529490915290819020849055919290917f8c5be1e5ebec7d5bd14f71427d1e84f3dd0314c0f7b2291e5b200ac8c7c3b92591905190815260200160405180910390a350600192915050565b600160a060020a03918216600090815260026020908152604080832093909416825291909152205490565b60035433600160a060020a039081169116146108bd57600080fd5b600160a060020a03811615156108d257600080fd5b600354600160a060020a0380831691167f8be0079c531659141344cd1fd0a4f28419497f9722a3daafe3b4186f6b6457e060405160405180910390a36003805473ffffffffffffffffffffffffffffffffffffffff1916600160a060020a0392909216919091179055565b60008282111561094957fe5b50900390565b60008282018381101561095e57fe5b93925050505600a165627a7a7230582081b1ddbae0564bd617f34323520a131f9742c6fcfefe32470b89c48d6698c3500029",
  "source": "pragma solidity ^0.4.21;\n\n/// @title PatientRecords\n/// @author Nicolas Frega - <frega.nicolas@gmail.com>\n/// Allows Medical Record System to maintain records of patients in their network.\n/// Records can be accessed by Hospitals if and only if patient provides name.\n/// Patients are rewarded with erc20 tokens for providing their name\n\nimport './InterfacePatientRecords.sol';\nimport './SpringToken.sol';\nimport './TokenDestructible.sol';\nimport 'zeppelin-solidity/contracts/math/SafeMath.sol';\n\ncontract PatientRecords is InterfacePatientRecords, TokenDestructible {\n  using SafeMath for uint256;\n\n    /*\n    * Events\n    */\n    event Deposit(address indexed sender, uint256 value);\n    event HospitalAddition(address hospital);\n    event HospitalRemoval(address hospital);\n    event PatientAddition(address patient);\n    event PatientRemoval(address patient);\n    event PatientRecordAdded(uint256 recordID, address patientAddress);\n    event NameAddedToRecords(uint256 recordID, address patientAddress);\n    event TokenRewardSet(uint256 tokenReward);\n    event PatientPaid(address patientAddress);\n\n    /*\n    * Constans\n    */\n    uint constant public MAX_COUNT = 50;\n\n    /*\n    * Storage\n    */\n    SpringToken public springToken;\n    mapping (address => bool) public isPatient;\n    mapping (address => bool) public isHospital;\n    mapping (uint256 => mapping (address => Records)) records;\n    mapping (uint256 => dateRange) dateRanges;\n    mapping (address => mapping (string => uint256)) mappingByName;\n    uint256 public recordCount = 0;\n    uint256 public tokenRewardAmount;\n    address public tokenAddress;\n\n    struct Records {\n        bool providedName;\n        string name;\n        address patient;\n        address hospital;\n        uint256 admissionDate;\n        uint256 dischargeDate;\n        uint256 visitReason;\n    }\n\n    struct dateRange {\n      uint256 admissionDate;\n      uint256 dischargeDate;\n    }\n\n    /*\n    * Modifiers\n    */\n    modifier validParameters(uint count) {\n        require(count <= MAX_COUNT\n            && count != 0);\n        _;\n    }\n\n    modifier hospitalDoesNotExist(address hospital) {\n        require(!isHospital[hospital]);\n        _;\n    }\n\n    modifier hospitalExist(address hospital) {\n        require(isHospital[hospital]);\n        _;\n    }\n\n    modifier patientDoesNotExist(address patient) {\n        require(!isPatient[patient]);\n        _;\n    }\n\n    modifier patientExist(address patient) {\n        require(isPatient[patient]);\n        _;\n    }\n\n    modifier notNull(address _address) {\n        require(_address != 0);\n        _;\n    }\n\n    modifier notEmpty(string name) {\n        bytes memory tempString = bytes(name);\n        require(tempString.length != 0);\n        _;\n    }\n\n    modifier onlyPatient(uint256 recordId) {\n        require(records[recordId][msg.sender].patient == msg.sender);\n        _;\n    }\n\n    modifier onlyHospital(uint256 recordId, address _patientAddress) {\n      require(records[recordId][_patientAddress].hospital == msg.sender);\n      _;\n    }\n\n    modifier recordExists(uint256 recordId, address patientAddress) {\n        address _hospital = records[recordId][patientAddress].hospital;\n        require(_hospital != 0x0);\n        _;\n    }\n\n    modifier patientProvidedName(uint256 recordId, address patient) {\n      require(records[recordId][patient].providedName == true);\n      _;\n    }\n\n    modifier patientNotProvidedName(uint256 recordId, address patient) {\n      require(records[recordId][patient].providedName == false);\n      _;\n    }\n\n    modifier higherThanZero(uint256 _uint) {\n        require(_uint > 0);\n        _;\n    }\n\n    /// @dev Fallback function allows to deposit ether.\n    function()\n        public\n        payable\n    {\n        if (msg.value > 0) {\n            emit Deposit(msg.sender, msg.value);\n          }\n    }\n\n    /*\n     * Public functions\n     */\n    /// @dev Contract constructor sets initial hospitals and patients.\n    /// @param _hospitals Address array of initial hospitals.\n    /// @param _patients Address array of initial patients\n    function PatientRecords(address[] _hospitals, address[] _patients)\n        public\n        validParameters(_hospitals.length)\n        validParameters(_patients.length)\n    {\n        uint i;\n        for (i=0; i < _hospitals.length; i++) {\n            require(_hospitals[i] != 0x0);\n            isHospital[_hospitals[i]] = true;\n        }\n\n        for (i=0; i < _patients.length; i++) {\n            require(!isHospital[_patients[i]]);\n            require(_patients[i] != 0x0);\n            isPatient[_patients[i]] = true;\n        }\n\n        setSpringToken(new SpringToken());\n        uint256 initialReward = 1000;\n        setSpringTokenReward(initialReward);\n    }\n\n    /// @dev Allows to add a new hospital in the network.\n    /// @param _hospital Address of new hospital.\n    function addHospital(address _hospital)\n        public\n        onlyOwner\n        hospitalDoesNotExist(_hospital)\n        patientDoesNotExist(_hospital)\n        notNull(_hospital)\n    {\n        isHospital[_hospital] = true;\n        emit HospitalAddition(_hospital);\n    }\n\n    /// @dev Allows to remove a hospital in the network.\n    /// @param _hospital Address of hospital to remove.\n    function removeHospital(address _hospital)\n        public\n        onlyOwner\n        hospitalExist(_hospital)\n    {\n        isHospital[_hospital] = false;\n        emit HospitalRemoval(_hospital);\n    }\n\n    /// @dev Allows to add a new patient in the network.\n    /// @param _patient Address of new patient.\n    function addPatient(address _patient)\n        public\n        onlyOwner\n        patientDoesNotExist(_patient)\n        hospitalDoesNotExist(_patient)\n        notNull(_patient)\n    {\n        isPatient[_patient] = true;\n        emit PatientAddition(_patient);\n    }\n\n    /// @dev Allows to remove a patient in the network.\n    /// @param _patient Address of patient to remove.\n    function removePatient(address _patient)\n        public\n        onlyOwner\n        patientExist(_patient)\n    {\n        isPatient[_patient] = false;\n        emit PatientRemoval(_patient);\n    }\n\n    /// @dev Allows to add a patient record in the network.\n    /// @param _patientAddress address of the patient for record.\n    /// @param _hospital address of the hospital for record.\n    /// @param _admissionDate date of admission, simple uint.\n    /// @param _dischargeDate date of discharge, simple uint.\n    /// @param _visitReason internal code for reason for visit.\n    function addRecord (\n        address _patientAddress,\n        address _hospital,\n        uint256 _admissionDate,\n        uint256 _dischargeDate,\n        uint256 _visitReason)\n        public\n        onlyOwner\n        patientExist(_patientAddress)\n        hospitalExist(_hospital)\n    {\n        records[recordCount][_patientAddress].providedName = false;\n        records[recordCount][_patientAddress].patient = _patientAddress;\n        records[recordCount][_patientAddress].hospital = _hospital;\n        records[recordCount][_patientAddress].admissionDate = _admissionDate;\n        records[recordCount][_patientAddress].dischargeDate = _dischargeDate;\n        records[recordCount][_patientAddress].visitReason = _visitReason;\n\n        dateRanges[recordCount].admissionDate = _admissionDate;\n        dateRanges[recordCount].dischargeDate = _dischargeDate;\n\n        emit PatientRecordAdded(recordCount, _patientAddress);\n\n        recordCount += 1;\n    }\n\n    /// @dev Allows a patient to add their name to the record in the network.\n    /// @param _recordID ID of the patient specific record.\n    /// @param _name Name for the patient\n    function addName(uint256 _recordID, string _name)\n        public\n        patientExist(msg.sender)\n        onlyPatient(_recordID)\n        recordExists(_recordID, msg.sender)\n        notEmpty(_name)\n        patientNotProvidedName(_recordID, msg.sender)\n    {\n        records[_recordID][msg.sender].providedName = true;\n        records[_recordID][msg.sender].name = _name;\n        address hostpitalInRecord = records[_recordID][msg.sender].hospital;\n        mappingByName[hostpitalInRecord][_name] += 1;\n\n        payPatient(msg.sender);\n\n        emit NameAddedToRecords(_recordID, msg.sender);\n    }\n\n    /// @dev Allows a Hospital to retrieve the record for a patient.\n    /// @param _recordID ID of the patient specific record.\n    /// @param _patientAddress address of the patient for record.\n    function getRecord(uint _recordID, address _patientAddress)\n      public\n      recordExists(_recordID, _patientAddress)\n      patientProvidedName(_recordID, _patientAddress)\n      onlyHospital(_recordID, _patientAddress)\n      view\n      returns (\n        string _name,\n        address _hospital,\n        uint256 _admissionDate,\n        uint256 _dischargeDate,\n        uint256 _visitReason)\n      {\n         _name = records[_recordID][_patientAddress].name;\n         _hospital = records[_recordID][_patientAddress].hospital;\n         _admissionDate = records[_recordID][_patientAddress].admissionDate;\n         _dischargeDate = records[_recordID][_patientAddress].dischargeDate;\n         _visitReason = records[_recordID][_patientAddress].visitReason;\n      }\n\n      /// @dev Allows a Hospital to view the number of records for a patient.\n      /// @param _name Name for the patient\n      function getRecordByName(string _name)\n        public\n        hospitalExist(msg.sender)\n        view\n        returns (uint256 numberOfRecords)\n        {\n          if (mappingByName[msg.sender][_name] != 0) {\n            numberOfRecords = mappingByName[msg.sender][_name];\n            return numberOfRecords;\n          }\n          else\n            return 0;\n        }\n\n      /// @dev Allows a Hospital to view the number of patients on a given date range.\n      /// @param from Starting date\n      /// @param to Ending date\n      function getCurrentPatients(uint from, uint to)\n        public\n        hospitalExist(msg.sender)\n        view\n        returns (uint _numberOfPatients)\n      {\n        uint i;\n        _numberOfPatients = 0;\n        for(i=0; i<recordCount; i++) {\n          if(dateRanges[i].admissionDate >= from && dateRanges[i].dischargeDate <= to)\n            _numberOfPatients += 1;\n          }\n      }\n\n      /// @dev sets the amount of Spring token rewards for providing name.\n      /// @param _tokenReward Amount of tokens to reward patient.\n      function setSpringTokenReward(uint256 _tokenReward)\n        public\n        onlyOwner\n        higherThanZero(_tokenReward)\n      {\n        tokenRewardAmount = _tokenReward;\n        emit TokenRewardSet(_tokenReward);\n      }\n\n      /// @dev gets the balance of patient.\n      /// @param _patientAddress address of patient.\n      /// @return Returns patient balance.\n      function getPatientBalance(address _patientAddress)\n          public\n          onlyOwner\n          constant\n          returns (uint256)\n      {\n          return springToken.balanceOf(_patientAddress);\n      }\n\n      /*\n      * Internal functions\n      */\n      /// @dev sets the patient token reward contract.\n      /// @param _newspringToken Address of patient token.\n      function setSpringToken(address _newspringToken)\n        internal\n        onlyOwner\n        notNull(_newspringToken)\n      {\n        springToken = SpringToken(_newspringToken);\n        tokenAddress = address(springToken);\n      }\n\n      /// @dev pays a patient for providing their name.\n      /// @param _patientAddress to receive tokens.\n      function payPatient(address _patientAddress)\n        private\n        notNull(_patientAddress)\n      {\n        springToken.transfer(_patientAddress, tokenRewardAmount);\n        emit PatientPaid(_patientAddress);\n      }\n\n}\n",
  "sourcePath": "/home/nico/Desktop/public_repos/hospital_network/contracts/PatientRecords.sol",
  "compiler": {
    "name": "solc",
    "version": "0.4.21+commit.dfe3193c.Emscripten.clang"
  },
  "schemaVersion": "2.0.0",
  "updatedAt": "2018-04-25T21:44:34.190Z"
}