{
  "contractName": "PatientRecords",
  "abi": [
    {
      "constant": true,
      "inputs": [],
      "name": "MAX_COUNT",
      "outputs": [
        {
          "name": "",
          "type": "uint256"
        }
      ],
      "payable": false,
      "stateMutability": "view",
      "type": "function"
    },
    {
      "constant": true,
      "inputs": [],
      "name": "owner",
      "outputs": [
        {
          "name": "",
          "type": "address"
        }
      ],
      "payable": false,
      "stateMutability": "view",
      "type": "function"
    },
    {
      "constant": true,
      "inputs": [
        {
          "name": "",
          "type": "address"
        }
      ],
      "name": "isPatient",
      "outputs": [
        {
          "name": "",
          "type": "bool"
        }
      ],
      "payable": false,
      "stateMutability": "view",
      "type": "function"
    },
    {
      "constant": true,
      "inputs": [],
      "name": "recordCount",
      "outputs": [
        {
          "name": "",
          "type": "uint256"
        }
      ],
      "payable": false,
      "stateMutability": "view",
      "type": "function"
    },
    {
      "constant": true,
      "inputs": [
        {
          "name": "",
          "type": "uint256"
        },
        {
          "name": "",
          "type": "address"
        }
      ],
      "name": "records",
      "outputs": [
        {
          "name": "providedName",
          "type": "bool"
        },
        {
          "name": "name",
          "type": "string"
        },
        {
          "name": "patient",
          "type": "address"
        },
        {
          "name": "hospital",
          "type": "address"
        },
        {
          "name": "visitReason",
          "type": "uint256"
        }
      ],
      "payable": false,
      "stateMutability": "view",
      "type": "function"
    },
    {
      "constant": true,
      "inputs": [
        {
          "name": "",
          "type": "address"
        }
      ],
      "name": "isHospital",
      "outputs": [
        {
          "name": "",
          "type": "bool"
        }
      ],
      "payable": false,
      "stateMutability": "view",
      "type": "function"
    },
    {
      "constant": true,
      "inputs": [
        {
          "name": "",
          "type": "uint256"
        }
      ],
      "name": "dateRanges",
      "outputs": [
        {
          "name": "admissionDate",
          "type": "uint256"
        },
        {
          "name": "dischargeDate",
          "type": "uint256"
        }
      ],
      "payable": false,
      "stateMutability": "view",
      "type": "function"
    },
    {
      "constant": false,
      "inputs": [
        {
          "name": "newOwner",
          "type": "address"
        }
      ],
      "name": "transferOwnership",
      "outputs": [],
      "payable": false,
      "stateMutability": "nonpayable",
      "type": "function"
    },
    {
      "inputs": [
        {
          "name": "_hospitals",
          "type": "address[]"
        },
        {
          "name": "_patients",
          "type": "address[]"
        }
      ],
      "payable": false,
      "stateMutability": "nonpayable",
      "type": "constructor"
    },
    {
      "payable": true,
      "stateMutability": "payable",
      "type": "fallback"
    },
    {
      "anonymous": false,
      "inputs": [
        {
          "indexed": true,
          "name": "sender",
          "type": "address"
        },
        {
          "indexed": false,
          "name": "value",
          "type": "uint256"
        }
      ],
      "name": "Deposit",
      "type": "event"
    },
    {
      "anonymous": false,
      "inputs": [
        {
          "indexed": false,
          "name": "hospital",
          "type": "address"
        }
      ],
      "name": "HospitalAddition",
      "type": "event"
    },
    {
      "anonymous": false,
      "inputs": [
        {
          "indexed": false,
          "name": "hospital",
          "type": "address"
        }
      ],
      "name": "HospitalRemoval",
      "type": "event"
    },
    {
      "anonymous": false,
      "inputs": [
        {
          "indexed": false,
          "name": "patient",
          "type": "address"
        }
      ],
      "name": "PatientAddition",
      "type": "event"
    },
    {
      "anonymous": false,
      "inputs": [
        {
          "indexed": false,
          "name": "patient",
          "type": "address"
        }
      ],
      "name": "PatientRemoval",
      "type": "event"
    },
    {
      "anonymous": false,
      "inputs": [
        {
          "indexed": false,
          "name": "recordID",
          "type": "uint256"
        },
        {
          "indexed": false,
          "name": "patientAddress",
          "type": "address"
        }
      ],
      "name": "PatientRecordAdded",
      "type": "event"
    },
    {
      "anonymous": false,
      "inputs": [
        {
          "indexed": false,
          "name": "recordID",
          "type": "uint256"
        },
        {
          "indexed": false,
          "name": "patientAddress",
          "type": "address"
        }
      ],
      "name": "NameAddedToRecords",
      "type": "event"
    },
    {
      "anonymous": false,
      "inputs": [
        {
          "indexed": true,
          "name": "previousOwner",
          "type": "address"
        },
        {
          "indexed": true,
          "name": "newOwner",
          "type": "address"
        }
      ],
      "name": "OwnershipTransferred",
      "type": "event"
    },
    {
      "constant": false,
      "inputs": [
        {
          "name": "_hospital",
          "type": "address"
        }
      ],
      "name": "addHospital",
      "outputs": [],
      "payable": false,
      "stateMutability": "nonpayable",
      "type": "function"
    },
    {
      "constant": false,
      "inputs": [
        {
          "name": "_hospital",
          "type": "address"
        }
      ],
      "name": "removeHospital",
      "outputs": [],
      "payable": false,
      "stateMutability": "nonpayable",
      "type": "function"
    },
    {
      "constant": false,
      "inputs": [
        {
          "name": "_patient",
          "type": "address"
        }
      ],
      "name": "addPatient",
      "outputs": [],
      "payable": false,
      "stateMutability": "nonpayable",
      "type": "function"
    },
    {
      "constant": false,
      "inputs": [
        {
          "name": "_patient",
          "type": "address"
        }
      ],
      "name": "removePatient",
      "outputs": [],
      "payable": false,
      "stateMutability": "nonpayable",
      "type": "function"
    },
    {
      "constant": false,
      "inputs": [
        {
          "name": "_patientAddress",
          "type": "address"
        },
        {
          "name": "_hospital",
          "type": "address"
        },
        {
          "name": "_admissionDate",
          "type": "bytes32[]"
        },
        {
          "name": "_dischargeDate",
          "type": "bytes32[]"
        },
        {
          "name": "_visitReason",
          "type": "uint256"
        }
      ],
      "name": "addRecord",
      "outputs": [],
      "payable": false,
      "stateMutability": "nonpayable",
      "type": "function"
    },
    {
      "constant": false,
      "inputs": [
        {
          "name": "_recordID",
          "type": "uint256"
        },
        {
          "name": "_name",
          "type": "string"
        }
      ],
      "name": "addName",
      "outputs": [],
      "payable": false,
      "stateMutability": "nonpayable",
      "type": "function"
    },
    {
      "constant": true,
      "inputs": [
        {
          "name": "_recordID",
          "type": "uint256"
        },
        {
          "name": "_patientAddress",
          "type": "address"
        }
      ],
      "name": "getRecord",
      "outputs": [
        {
          "name": "_name",
          "type": "string"
        },
        {
          "name": "_hospital",
          "type": "address"
        },
        {
          "name": "_admissionDate",
          "type": "bytes32[]"
        },
        {
          "name": "_dischargeDate",
          "type": "bytes32[]"
        },
        {
          "name": "_visitReason",
          "type": "uint256"
        }
      ],
      "payable": false,
      "stateMutability": "view",
      "type": "function"
    },
    {
      "constant": true,
      "inputs": [
        {
          "name": "_name",
          "type": "string"
        }
      ],
      "name": "getRecordByName",
      "outputs": [
        {
          "name": "numberOfRecords",
          "type": "uint256"
        }
      ],
      "payable": false,
      "stateMutability": "view",
      "type": "function"
    }
  ],
  "bytecode": "0x6060604052600060065534156200001557600080fd5b6040516200165a3803806200165a8339810160405280805182019190602001805160008054600160a060020a03191633600160a060020a031617815592019190508251603281111580156200006957508015155b15156200007557600080fd5b8251603281111580156200008857508015155b15156200009457600080fd5b600092505b8451831015620001655760026000868581518110620000b457fe5b90602001906020020151600160a060020a0316815260208101919091526040016000205460ff16158015620001075750848381518110620000f157fe5b90602001906020020151600160a060020a031615155b15156200011357600080fd5b6001600260008786815181106200012657fe5b90602001906020020151600160a060020a031681526020810191909152604001600020805460ff19169115159190911790556001929092019162000099565b600092505b83518310156200023557600160008585815181106200018557fe5b90602001906020020151600160a060020a0316815260208101919091526040016000205460ff16158015620001d85750838381518110620001c257fe5b90602001906020020151600160a060020a031615155b1515620001e457600080fd5b6001806000868681518110620001f657fe5b90602001906020020151600160a060020a031681526020810191909152604001600020805460ff1916911515919091179055600192909201916200016a565b5050505050611410806200024a6000396000f3006060604052600436106100e55763ffffffff7c01000000000000000000000000000000000000000000000000000000006000350416631450d12b811461012e5780631b470bc714610184578063337e9f4a146101a35780636d263ceb1461020657806377163c1d146102255780637d0d62571461023857806382d8185c146102575780638da5cb5b1461039b5780638f9c79ed146103ca578063900407bc146103fd578063a969890614610410578063a9ee491f1461042f578063bdf6c67314610503578063e4d3b2ac14610522578063f2fde38b14610550578063ff11ab111461056f575b600034111561012c5733600160a060020a03167fe1fffcc4923d04b559f4d29a8bfc6cda04eb5b0d3c460751c2402c5c5cc9109c3460405190815260200160405180910390a25b005b341561013957600080fd5b61012c600480359060446024803590810190830135806020601f8201819004810201604051908101604052818152929190602084018383808284375094965061061895505050505050565b341561018f57600080fd5b61012c600160a060020a0360043516610803565b34156101ae57600080fd5b6101f460046024813581810190830135806020601f820181900481020160405190810160405281815292919060208401838380828437509496506108ec95505050505050565b60405190815260200160405180910390f35b341561021157600080fd5b61012c600160a060020a0360043516610a2c565b341561023057600080fd5b6101f4610b17565b341561024357600080fd5b61012c600160a060020a0360043516610b1c565b341561026257600080fd5b610279600435600160a060020a0360243516610bc3565b604051808060200186600160a060020a0316600160a060020a031681526020018060200180602001858152602001848103845289818151815260200191508051906020019080838360005b838110156102dc5780820151838201526020016102c4565b50505050905090810190601f1680156103095780820380516001836020036101000a031916815260200191505b50848103835287818151815260200191508051906020019060200280838360005b8381101561034257808201518382015260200161032a565b50505050905001848103825286818151815260200191508051906020019060200280838360005b83811015610381578082015183820152602001610369565b505050509050019850505050505050505060405180910390f35b34156103a657600080fd5b6103ae610f40565b604051600160a060020a03909116815260200160405180910390f35b34156103d557600080fd5b6103e9600160a060020a0360043516610f4f565b604051901515815260200160405180910390f35b341561040857600080fd5b6101f4610f64565b341561041b57600080fd5b61012c600160a060020a0360043516610f6a565b341561043a57600080fd5b610451600435600160a060020a0360243516611011565b6040518515158152600160a060020a038085166040830152831660608201526080810182905260a0602082018181528654600260001961010060018416150201909116049183018290529060c0830190879080156104f05780601f106104c5576101008083540402835291602001916104f0565b820191906000526020600020905b8154815290600101906020018083116104d357829003601f168201915b5050965050505050505060405180910390f35b341561050e57600080fd5b6103e9600160a060020a0360043516611058565b341561052d57600080fd5b61053860043561106d565b60405191825260208201526040908101905180910390f35b341561055b57600080fd5b61012c600160a060020a0360043516611086565b341561057a57600080fd5b61012c600160a060020a0360048035821691602480359091169190606490604435908101908301358060208181020160405190810160405280939291908181526020018383602002808284378201915050505050509190803590602001908201803590602001908080602002602001604051908101604052809392919081815260200183836020028082843750949650509335935061112192505050565b33600160a060020a03811660009081526001602052604081205490919060ff16151561064357600080fd5b6000848152600360209081526040808320600160a060020a0333811680865291909352922060020154869291161461067a57600080fd5b600085815260036020818152604080842033600160a060020a038181168752919093529320909101548792168015156106b257600080fd5b866106bb6112fa565b5080805115156106ca57600080fd5b60008a8152600360209081526040808320600160a060020a03331684529091529020805460ff1916600190811782550189805161070b92916020019061130c565b5060008a8152600360208181526040808420600160a060020a03338116865290835281852090930154909216808452600590915291819020919950600191908b90518082805190602001908083835b602083106107795780518252601f19909201916020918201910161075a565b6001836020036101000a038019825116818451168082178552505050505050905001915050908152602001604051908190039020805490910190557ff961dcbb7de5f5ad2d484ef309a56b535546c0b93a13c509af81775c0f1afec88a33604051918252600160a060020a031660208201526040908101905180910390a150505050505050505050565b60005433600160a060020a0390811691161461081e57600080fd5b600160a060020a038116600090815260026020526040902054819060ff161561084657600080fd5b600160a060020a038216600090815260016020526040902054829060ff161561086e57600080fd5b82600160a060020a038116151561088457600080fd5b600160a060020a03841660009081526002602052604090819020805460ff191660011790557f287ab756b8d47062a978ed6e40674fb341af71a7b67a1c47d68c41816e77f71090859051600160a060020a03909116815260200160405180910390a150505050565b33600160a060020a03811660009081526002602052604081205490919060ff16151561091757600080fd5b600160a060020a03331660009081526005602052604090819020908490518082805190602001908083835b602083106109615780518252601f199092019160209182019101610942565b6001836020036101000a0380198251168184511680821785525050505050509050019150509081526020016040519081900390205415610a2157600160a060020a03331660009081526005602052604090819020908490518082805190602001908083835b602083106109e55780518252601f1990920191602091820191016109c6565b6001836020036101000a038019825116818451168082178552505050505050905001915050908152602001604051908190039020549150610a26565b600091505b50919050565b60005433600160a060020a03908116911614610a4757600080fd5b600160a060020a038116600090815260016020526040902054819060ff1615610a6f57600080fd5b600160a060020a038216600090815260026020526040902054829060ff1615610a9757600080fd5b82600160a060020a0381161515610aad57600080fd5b600160a060020a038416600090815260016020819052604091829020805460ff191690911790557ff75424a59c353b95f24d9c0d7860f6092d93693015907a3e3686dad567659ed990859051600160a060020a03909116815260200160405180910390a150505050565b603281565b60005433600160a060020a03908116911614610b3757600080fd5b600160a060020a038116600090815260016020526040902054819060ff161515610b6057600080fd5b600160a060020a03821660009081526001602052604090819020805460ff191690557fd00d169b387ed019da2c547c0301001cb83f928efec4dac9146387fabe162ccb90839051600160a060020a03909116815260200160405180910390a15050565b610bcb6112fa565b6000610bd56112fa565b610bdd6112fa565b6000868152600360208181526040808420600160a060020a03808b16865292528320909101548891889116801515610c1457600080fd5b60008a8152600360209081526040808320600160a060020a038d1684529091529020548a908a9060ff161515600114610c4c57600080fd5b8b8b33600160a060020a031660036000848152602001908152602001600020600083600160a060020a0316600160a060020a0316815260200190815260200160002060030160009054906101000a9004600160a060020a0316600160a060020a0316141515610cba57600080fd5b600360008f815260200190815260200160002060008e600160a060020a0316600160a060020a031681526020019081526020016000206001018054600181600116156101000203166002900480601f016020809104026020016040519081016040528092919081815260200182805460018160011615610100020316600290048015610d875780601f10610d5c57610100808354040283529160200191610d87565b820191906000526020600020905b815481529060010190602001808311610d6a57829003601f168201915b50505050509b50600360008f815260200190815260200160002060008e600160a060020a0316600160a060020a0316815260200190815260200160002060030160009054906101000a9004600160a060020a03169a50600360008f815260200190815260200160002060008e600160a060020a0316600160a060020a03168152602001908152602001600020600401805480602002602001604051908101604052809291908181526020018280548015610e6157602002820191906000526020600020905b81548152600190910190602001808311610e4c575b50505050509950600360008f815260200190815260200160002060008e600160a060020a0316600160a060020a03168152602001908152602001600020600501805480602002602001604051908101604052809291908181526020018280548015610eec57602002820191906000526020600020905b81548152600190910190602001808311610ed7575b50505050509850600360008f815260200190815260200160002060008e600160a060020a0316600160a060020a03168152602001908152602001600020600601549750505050505050509295509295909350565b600054600160a060020a031681565b60016020526000908152604090205460ff1681565b60065481565b60005433600160a060020a03908116911614610f8557600080fd5b600160a060020a038116600090815260026020526040902054819060ff161515610fae57600080fd5b600160a060020a03821660009081526002602052604090819020805460ff191690557fbfb48ce53ec1045d105aa1e3d52a1e02185802cf0f94b31ce88866cffb0bf4ce90839051600160a060020a03909116815260200160405180910390a15050565b600360208181526000938452604080852090915291835291208054600282015492820154600683015460ff90921693600190930192600160a060020a039081169291169085565b60026020526000908152604090205460ff1681565b6004602052600090815260409020805460019091015482565b60005433600160a060020a039081169116146110a157600080fd5b600160a060020a03811615156110b657600080fd5b600054600160a060020a0380831691167f8be0079c531659141344cd1fd0a4f28419497f9722a3daafe3b4186f6b6457e060405160405180910390a36000805473ffffffffffffffffffffffffffffffffffffffff1916600160a060020a0392909216919091179055565b60005433600160a060020a0390811691161461113c57600080fd5b600160a060020a038516600090815260016020526040902054859060ff16151561116557600080fd5b600160a060020a038516600090815260026020526040902054859060ff16151561118e57600080fd5b600680546000908152600360208181526040808420600160a060020a038d8116808752918452828620805460ff19169055865486528484528286208287528452828620600201805473ffffffffffffffffffffffffffffffffffffffff19908116841790915587548752858552838720838852855283872086018054909116918e1691909117905594548452918152818320938352929092522060040185805161123c92916020019061138a565b506006546000908152600360209081526040808320600160a060020a038b168452909152902060050184805161127692916020019061138a565b50600680546000908152600360209081526040808320600160a060020a038c16845290915290819020820185905590547f1b2cf9192ff159a0857f42005efa4d396207762041b02376140ce1011888db2491899051918252600160a060020a031660208201526040908101905180910390a150506006805460010190555050505050565b60206040519081016040526000815290565b828054600181600116156101000203166002900490600052602060002090601f016020900481019282601f1061134d57805160ff191683800117855561137a565b8280016001018555821561137a579182015b8281111561137a57825182559160200191906001019061135f565b506113869291506113c7565b5090565b82805482825590600052602060002090810192821561137a579160200282015b8281111561137a57825182556020909201916001909101906113aa565b6113e191905b8082111561138657600081556001016113cd565b905600a165627a7a72305820d04b8a27aac46af4545800b2682ee35f64c3dfa7d5e348611e630942d13575900029",
  "source": "pragma solidity ^0.4.19;\n\n/// @title PatientRecords\n/// @author Nicolas Frega - <frega.nicolas@gmail.com>\n/// Allows Medical Record System to maintain records of patients in their network.\n/// Records can be accessed and decrypted by Hospitals if and only if patient provides name.\n\nimport 'zeppelin-solidity/contracts/ownership/Ownable.sol';\nimport 'zeppelin-solidity/contracts/math/SafeMath.sol';\n\ncontract PatientRecords is Ownable {\n  using SafeMath for uint256;\n\n    /*\n    * Events\n    */\n    event Deposit(address indexed sender, uint256 value);\n    event HospitalAddition(address hospital);\n    event HospitalRemoval(address hospital);\n    event PatientAddition(address patient);\n    event PatientRemoval(address patient);\n    event PatientRecordAdded(uint256 recordID, address patientAddress);\n    event NameAddedToRecords(uint256 recordID, address patientAddress);\n\n    /*\n    * Constans\n    */\n    uint constant public MAX_COUNT = 50;\n\n    /*\n    * Storage\n    */\n    mapping (address => bool) public isPatient;\n    mapping (address => bool) public isHospital;\n    mapping (uint256 => mapping (address => Records)) public records;\n    mapping (uint256 => dateRange) public dateRanges;\n    mapping (address => mapping (string => uint256)) mappingByName;\n    uint256 public recordCount = 0;\n\n    struct Records {\n        bool providedName;\n        string name;\n        address patient;\n        address hospital;\n        bytes32[] admissionDate;\n        bytes32[] dischargeDate;\n        uint256 visitReason;\n    }\n\n    struct dateRange {\n      uint256 admissionDate;\n      uint256 dischargeDate;\n    }\n\n    /*\n    * Modifiers\n    */\n    modifier validParameters(uint count) {\n        require(count <= MAX_COUNT\n            && count != 0);\n        _;\n    }\n\n    modifier hospitalDoesNotExist(address hospital) {\n        require(!isHospital[hospital]);\n        _;\n    }\n\n    modifier hospitalExist(address hospital) {\n        require(isHospital[hospital]);\n        _;\n    }\n\n    modifier patientDoesNotExist(address patient) {\n        require(!isPatient[patient]);\n        _;\n    }\n\n    modifier patientExist(address patient) {\n        require(isPatient[patient]);\n        _;\n    }\n\n    modifier notNull(address _address) {\n        require(_address != 0);\n        _;\n    }\n\n    modifier notEmpty(string name) {\n        bytes memory tempString = bytes(name);\n        require(tempString.length != 0);\n        _;\n    }\n\n    modifier onlyPatient(uint256 recordId) {\n        require(records[recordId][msg.sender].patient == msg.sender);\n        _;\n    }\n\n    modifier onlyHospital(uint256 recordId, address _patientAddress) {\n      require(records[recordId][_patientAddress].hospital == msg.sender);\n      _;\n    }\n\n    modifier recordExists(uint256 recordId, address patientAddress) {\n        address _hospital = records[recordId][patientAddress].hospital;\n        require(_hospital != 0x0);\n        _;\n    }\n\n    modifier patientProvidedName(uint256 recordId, address patient) {\n      require(records[recordId][patient].providedName == true);\n      _;\n    }\n\n\n\n    /// @dev Fallback function allows to deposit ether.\n    function()\n        public\n        payable\n    {\n        if (msg.value > 0)\n            Deposit(msg.sender, msg.value);\n    }\n\n    /*\n     * Public functions\n     */\n    /// @dev Contract constructor sets initial hospitals and patients.\n    /// @param _hospitals Address array of initial hospitals.\n    /// @param _patients Address array of initial patients\n    function PatientRecords(address[] _hospitals, address[] _patients)\n        public\n        validParameters(_hospitals.length)\n        validParameters(_patients.length)\n    {\n        uint i;\n        for (i=0; i < _hospitals.length; i++) {\n            require(!isHospital[_hospitals[i]] && _hospitals[i] != 0);\n            isHospital[_hospitals[i]] = true;\n        }\n\n        for (i=0; i < _patients.length; i++) {\n            require(!isPatient[_patients[i]] && _patients[i] != 0);\n            isPatient[_patients[i]] = true;\n        }\n    }\n\n    /// @dev Allows to add a new hospital in the network.\n    /// @param _hospital Address of new hospital.\n    function addHospital(address _hospital)\n        public\n        onlyOwner\n        hospitalDoesNotExist(_hospital)\n        patientDoesNotExist(_hospital)\n        notNull(_hospital)\n    {\n        isHospital[_hospital] = true;\n        HospitalAddition(_hospital);\n    }\n\n    /// @dev Allows to remove a hospital in the network.\n    /// @param _hospital Address of hospital to remove.\n    function removeHospital(address _hospital)\n        public\n        onlyOwner\n        hospitalExist(_hospital)\n    {\n        isHospital[_hospital] = false;\n        HospitalRemoval(_hospital);\n    }\n\n    /// @dev Allows to add a new patient in the network.\n    /// @param _patient Address of new patient.\n    function addPatient(address _patient)\n        public\n        onlyOwner\n        patientDoesNotExist(_patient)\n        hospitalDoesNotExist(_patient)\n        notNull(_patient)\n    {\n        isPatient[_patient] = true;\n        PatientAddition(_patient);\n    }\n\n    /// @dev Allows to remove a patient in the network.\n    /// @param _patient Address of patient to remove.\n    function removePatient(address _patient)\n        public\n        onlyOwner\n        patientExist(_patient)\n    {\n        isPatient[_patient] = false;\n        PatientRemoval(_patient);\n    }\n\n    /// @dev Allows to add a patient record in the network.\n    /// @param _patientAddress address of the patient for record.\n    /// @param _hospital address of the hospital for record.\n    /// @param _admissionDate date of admission, simple uint.\n    /// @param _dischargeDate date of discharge, simple uint.\n    /// @param _visitReason internal code for reason for visit.\n    function addRecord (\n        address _patientAddress,\n        address _hospital,\n        bytes32[] _admissionDate,\n        bytes32[] _dischargeDate,\n        uint256 _visitReason)\n        public\n        onlyOwner\n        patientExist(_patientAddress)\n        hospitalExist(_hospital)\n    {\n        records[recordCount][_patientAddress].providedName = false;\n        records[recordCount][_patientAddress].patient = _patientAddress;\n        records[recordCount][_patientAddress].hospital = _hospital;\n        records[recordCount][_patientAddress].admissionDate = _admissionDate;\n        records[recordCount][_patientAddress].dischargeDate = _dischargeDate;\n        records[recordCount][_patientAddress].visitReason = _visitReason;\n\n        /*dateRanges[recordCount].admissionDate = _admissionDate;\n        dateRanges[recordCount].dischargeDate = _dischargeDate;*/\n\n        PatientRecordAdded(recordCount, _patientAddress);\n\n        recordCount += 1;\n    }\n\n    /// @dev Allows a patient to add their name to the record in the network.\n    /// @param _recordID ID of the patient specific record.\n    /// @param _name Name for the patient\n    function addName(uint256 _recordID, string _name)\n        public\n        patientExist(msg.sender)\n        onlyPatient(_recordID)\n        recordExists(_recordID, msg.sender)\n        notEmpty(_name)\n    {\n        records[_recordID][msg.sender].providedName = true;\n        records[_recordID][msg.sender].name = _name;\n        address hostpitalInRecord = records[_recordID][msg.sender].hospital;\n        mappingByName[hostpitalInRecord][_name] += 1;\n\n        NameAddedToRecords(_recordID, msg.sender);\n\n    }\n\n    /// @dev Allows a Hospital to retrieve the record for a patient.\n    /// @param _recordID ID of the patient specific record.\n    /// @param _patientAddress address of the patient for record.\n    function getRecord(uint _recordID, address _patientAddress)\n      public\n      recordExists(_recordID, _patientAddress)\n      patientProvidedName(_recordID, _patientAddress)\n      onlyHospital(_recordID, _patientAddress)\n      view\n      returns (\n        string _name,\n        address _hospital,\n        bytes32[] _admissionDate,\n        bytes32[] _dischargeDate,\n        uint256 _visitReason)\n      {\n         _name = records[_recordID][_patientAddress].name;\n         _hospital = records[_recordID][_patientAddress].hospital;\n         _admissionDate = records[_recordID][_patientAddress].admissionDate;\n         _dischargeDate = records[_recordID][_patientAddress].dischargeDate;\n         _visitReason = records[_recordID][_patientAddress].visitReason;\n      }\n\n      /// @dev Allows a Hospital to view the number of records for a patient.\n      /// @param _name Name for the patient\n      function getRecordByName(string _name)\n        public\n        hospitalExist(msg.sender)\n        view\n        returns (uint256 numberOfRecords)\n        {\n          if (mappingByName[msg.sender][_name] != 0) {\n            numberOfRecords = mappingByName[msg.sender][_name];\n            return numberOfRecords;\n          }\n          else\n            return 0;\n        }\n\n      /// @dev Allows a Hospital to view the number of patients on a given date range.\n      /// @param from Starting date\n      /// @param to Ending date\n      /*function getCurrentPatients(uint from, uint to)\n        public\n        view\n        returns (uint _numberOfPatients)\n      {\n        uint i;\n        _numberOfPatients = 0;\n        for(i=0; i<recordCount; i++) {\n          if(dateRanges[i].admissionDate >= from && dateRanges[i].dischargeDate <= to)\n            _numberOfPatients += 1;\n          }\n      }*/\n\n}\n",
  "sourcePath": "/home/nico/Desktop/public_repos/hospital_network/contracts/PatientRecords.sol",
  "compiler": {
    "name": "solc",
    "version": "0.4.19+commit.c4cbbb05.Emscripten.clang"
  },
  "schemaVersion": "2.0.0",
  "updatedAt": "2018-04-10T17:13:13.566Z"
}