{
  "contractName": "SafeMathMock",
  "abi": [
    {
      "constant": true,
      "inputs": [
        {
          "name": "a",
          "type": "uint256"
        },
        {
          "name": "b",
          "type": "uint256"
        }
      ],
      "name": "mul",
      "outputs": [
        {
          "name": "",
          "type": "uint256"
        }
      ],
      "payable": false,
      "stateMutability": "pure",
      "type": "function"
    },
    {
      "constant": true,
      "inputs": [
        {
          "name": "a",
          "type": "uint256"
        },
        {
          "name": "b",
          "type": "uint256"
        }
      ],
      "name": "div",
      "outputs": [
        {
          "name": "",
          "type": "uint256"
        }
      ],
      "payable": false,
      "stateMutability": "pure",
      "type": "function"
    },
    {
      "constant": true,
      "inputs": [
        {
          "name": "a",
          "type": "uint256"
        },
        {
          "name": "b",
          "type": "uint256"
        }
      ],
      "name": "sub",
      "outputs": [
        {
          "name": "",
          "type": "uint256"
        }
      ],
      "payable": false,
      "stateMutability": "pure",
      "type": "function"
    },
    {
      "constant": true,
      "inputs": [
        {
          "name": "a",
          "type": "uint256"
        },
        {
          "name": "b",
          "type": "uint256"
        }
      ],
      "name": "add",
      "outputs": [
        {
          "name": "",
          "type": "uint256"
        }
      ],
      "payable": false,
      "stateMutability": "pure",
      "type": "function"
    }
  ],
  "bytecode": "0x608060405234801561001057600080fd5b506101a6806100206000396000f3006080604052600436106100615763ffffffff7c0100000000000000000000000000000000000000000000000000000000600035041663771602f78114610066578063a391c15b14610093578063b67d77c5146100ae578063c8a4ac9c146100c9575b600080fd5b34801561007257600080fd5b506100816004356024356100e4565b60408051918252519081900360200190f35b34801561009f57600080fd5b506100816004356024356100f9565b3480156100ba57600080fd5b50610081600435602435610105565b3480156100d557600080fd5b50610081600435602435610111565b60006100f0838361011d565b90505b92915050565b60006100f0838361012a565b60006100f0838361013f565b60006100f08383610151565b818101828110156100f357fe5b6000818381151561013757fe5b049392505050565b60008282111561014b57fe5b50900390565b6000821515610162575060006100f3565b5081810281838281151561017257fe5b04146100f357fe00a165627a7a723058205328af4f307636932e4f9108d212082a056610784869503aa9ccb74ed2f446c50029",
  "source": "pragma solidity ^0.4.21;\n\nimport \"../SafeMath.sol\";\n\ncontract SafeMathMock {\n\n  function mul(uint256 a, uint256 b) public pure returns (uint256) {\n    return SafeMath.mul(a, b);\n  }\n\n  function div(uint256 a, uint256 b) public pure returns (uint256) {\n    return SafeMath.div(a, b);\n  }\n\n  function sub(uint256 a, uint256 b) public pure returns (uint256) {\n    return SafeMath.sub(a, b);\n  }\n\n  function add(uint256 a, uint256 b) public pure returns (uint256) {\n    return SafeMath.add(a, b);\n  }\n}\n",
  "sourcePath": "/home/nico/Desktop/public_repos/hospital_network/contracts/mocks/SafeMathMock.sol",
  "compiler": {
    "name": "solc",
    "version": "0.4.23+commit.124ca40d.Emscripten.clang"
  },
  "schemaVersion": "2.0.0",
  "updatedAt": "2018-04-29T19:31:19.690Z"
}