{
  "contractName": "TokenDestructible",
  "abi": [
    {
      "constant": true,
      "inputs": [],
      "name": "owner",
      "outputs": [
        {
          "name": "",
          "type": "address"
        }
      ],
      "payable": false,
      "stateMutability": "view",
      "type": "function"
    },
    {
      "constant": false,
      "inputs": [
        {
          "name": "newOwner",
          "type": "address"
        }
      ],
      "name": "transferOwnership",
      "outputs": [],
      "payable": false,
      "stateMutability": "nonpayable",
      "type": "function"
    },
    {
      "inputs": [],
      "payable": true,
      "stateMutability": "payable",
      "type": "constructor"
    },
    {
      "anonymous": false,
      "inputs": [
        {
          "indexed": true,
          "name": "previousOwner",
          "type": "address"
        },
        {
          "indexed": true,
          "name": "newOwner",
          "type": "address"
        }
      ],
      "name": "OwnershipTransferred",
      "type": "event"
    },
    {
      "constant": false,
      "inputs": [
        {
          "name": "tokens",
          "type": "address[]"
        }
      ],
      "name": "destroy",
      "outputs": [],
      "payable": false,
      "stateMutability": "nonpayable",
      "type": "function"
    }
  ],
  "bytecode": "0x606060405260008054600160a060020a033316600160a060020a03199091161790556103e2806100306000396000f3006060604052600436106100565763ffffffff7c01000000000000000000000000000000000000000000000000000000006000350416638da5cb5b811461005b578063c6786e5a14610097578063f2fde38b146100e8575b600080fd5b341561006657600080fd5b61006e610114565b60405173ffffffffffffffffffffffffffffffffffffffff909116815260200160405180910390f35b34156100a257600080fd5b6100e6600460248135818101908301358060208181020160405190810160405280939291908181526020018383602002808284375094965061013095505050505050565b005b34156100f357600080fd5b6100e673ffffffffffffffffffffffffffffffffffffffff600435166102e7565b60005473ffffffffffffffffffffffffffffffffffffffff1681565b60008054819081903373ffffffffffffffffffffffffffffffffffffffff90811691161461015d57600080fd5b600092505b83518310156102cc5783838151811061017757fe5b9060200190602002015191508173ffffffffffffffffffffffffffffffffffffffff166370a08231306040517c010000000000000000000000000000000000000000000000000000000063ffffffff841602815273ffffffffffffffffffffffffffffffffffffffff9091166004820152602401602060405180830381600087803b151561020457600080fd5b5af1151561021157600080fd5b505050604051805160005490925073ffffffffffffffffffffffffffffffffffffffff808516925063a9059cbb9116836040517c010000000000000000000000000000000000000000000000000000000063ffffffff851602815273ffffffffffffffffffffffffffffffffffffffff90921660048301526024820152604401602060405180830381600087803b15156102aa57600080fd5b5af115156102b757600080fd5b50505060405180515050600190920191610162565b60005473ffffffffffffffffffffffffffffffffffffffff16ff5b6000543373ffffffffffffffffffffffffffffffffffffffff90811691161461030f57600080fd5b73ffffffffffffffffffffffffffffffffffffffff8116151561033157600080fd5b60005473ffffffffffffffffffffffffffffffffffffffff80831691167f8be0079c531659141344cd1fd0a4f28419497f9722a3daafe3b4186f6b6457e060405160405180910390a36000805473ffffffffffffffffffffffffffffffffffffffff191673ffffffffffffffffffffffffffffffffffffffff929092169190911790555600a165627a7a723058206a2e317b875aabd6b0862198ee3408b64e1dfd001d6d6ef06f33a829b4b691190029",
  "source": "pragma solidity ^0.4.21;\n\nimport 'zeppelin-solidity/contracts/ownership/Ownable.sol';\nimport 'zeppelin-solidity/contracts/token/ERC20/ERC20Basic.sol';\n\n\n/**\n * @title TokenDestructible:\n * @author Remco Bloemen <remco@2π.com>\n * @dev Base contract that can be destroyed by owner. All funds in contract including\n * listed tokens will be sent to the owner.\n */\ncontract TokenDestructible is Ownable {\n\n  function TokenDestructible() public payable { }\n\n  /**\n   * @notice Terminate contract and refund to owner\n   * @param tokens List of addresses of ERC20 or ERC20Basic token contracts to\n   refund.\n   * @notice The called token contracts could try to re-enter this contract. Only\n   supply token contracts you trust.\n   */\n  function destroy(address[] tokens) onlyOwner public {\n\n    // Transfer tokens to owner\n    for (uint256 i = 0; i < tokens.length; i++) {\n      ERC20Basic token = ERC20Basic(tokens[i]);\n      uint256 balance = token.balanceOf(this);\n      token.transfer(owner, balance);\n    }\n\n    // Transfer Eth to owner and terminate contract\n    selfdestruct(owner);\n  }\n}\n",
  "sourcePath": "/home/nico/Desktop/public_repos/hospital_network/contracts/TokenDestructible.sol",
  "compiler": {
    "name": "solc",
    "version": "0.4.21+commit.dfe3193c.Emscripten.clang"
  },
  "schemaVersion": "2.0.0",
  "updatedAt": "2018-04-25T21:30:51.175Z"
}