{
  "contractName": "TokenDestructible",
  "abi": [
    {
      "constant": true,
      "inputs": [],
      "name": "owner",
      "outputs": [
        {
          "name": "",
          "type": "address"
        }
      ],
      "payable": false,
      "stateMutability": "view",
      "type": "function"
    },
    {
      "constant": false,
      "inputs": [
        {
          "name": "newOwner",
          "type": "address"
        }
      ],
      "name": "transferOwnership",
      "outputs": [],
      "payable": false,
      "stateMutability": "nonpayable",
      "type": "function"
    },
    {
      "inputs": [],
      "payable": true,
      "stateMutability": "payable",
      "type": "constructor"
    },
    {
      "anonymous": false,
      "inputs": [
        {
          "indexed": true,
          "name": "previousOwner",
          "type": "address"
        },
        {
          "indexed": true,
          "name": "newOwner",
          "type": "address"
        }
      ],
      "name": "OwnershipTransferred",
      "type": "event"
    },
    {
      "constant": false,
      "inputs": [
        {
          "name": "tokens",
          "type": "address[]"
        }
      ],
      "name": "destroy",
      "outputs": [],
      "payable": false,
      "stateMutability": "nonpayable",
      "type": "function"
    }
  ],
  "bytecode": "0x608060405260008054600160a060020a033316600160a060020a0319909116179055610421806100306000396000f3006080604052600436106100565763ffffffff7c01000000000000000000000000000000000000000000000000000000006000350416638da5cb5b811461005b578063c6786e5a14610099578063f2fde38b146100f0575b600080fd5b34801561006757600080fd5b5061007061011e565b6040805173ffffffffffffffffffffffffffffffffffffffff9092168252519081900360200190f35b3480156100a557600080fd5b50604080516020600480358082013583810280860185019096528085526100ee9536959394602494938501929182918501908490808284375094975061013a9650505050505050565b005b3480156100fc57600080fd5b506100ee73ffffffffffffffffffffffffffffffffffffffff60043516610329565b60005473ffffffffffffffffffffffffffffffffffffffff1681565b60008054819081903373ffffffffffffffffffffffffffffffffffffffff90811691161461016757600080fd5b600092505b835183101561030e57838381518110151561018357fe5b9060200190602002015191508173ffffffffffffffffffffffffffffffffffffffff166370a08231306040518263ffffffff167c0100000000000000000000000000000000000000000000000000000000028152600401808273ffffffffffffffffffffffffffffffffffffffff1673ffffffffffffffffffffffffffffffffffffffff168152602001915050602060405180830381600087803b15801561022a57600080fd5b505af115801561023e573d6000803e3d6000fd5b505050506040513d602081101561025457600080fd5b505160008054604080517fa9059cbb00000000000000000000000000000000000000000000000000000000815273ffffffffffffffffffffffffffffffffffffffff92831660048201526024810185905290519394509085169263a9059cbb92604480840193602093929083900390910190829087803b1580156102d757600080fd5b505af11580156102eb573d6000803e3d6000fd5b505050506040513d602081101561030157600080fd5b505060019092019161016c565b60005473ffffffffffffffffffffffffffffffffffffffff16ff5b6000543373ffffffffffffffffffffffffffffffffffffffff90811691161461035157600080fd5b73ffffffffffffffffffffffffffffffffffffffff8116151561037357600080fd5b6000805460405173ffffffffffffffffffffffffffffffffffffffff808516939216917f8be0079c531659141344cd1fd0a4f28419497f9722a3daafe3b4186f6b6457e091a36000805473ffffffffffffffffffffffffffffffffffffffff191673ffffffffffffffffffffffffffffffffffffffff929092169190911790555600a165627a7a7230582035137c11d8e201d0f9f73616905b0df78d30babe50f72fcf15b979f388f997ee0029",
  "source": "pragma solidity ^0.4.21;\n\nimport \"./Ownable.sol\";\nimport \"./ERC20Basic.sol\";\n\n\n/**\n * @title TokenDestructible:\n * @author Remco Bloemen <remco@2π.com>\n * @dev Base contract that can be destroyed by owner. All funds in contract including\n * listed tokens will be sent to the owner.\n */\ncontract TokenDestructible is Ownable {\n\n    constructor() public payable { }\n\n    /**\n    * @notice Terminate contract and refund to owner\n    * @param tokens List of addresses of ERC20 or ERC20Basic token contracts to\n    refund.\n    * @notice The called token contracts could try to re-enter this contract. Only\n    supply token contracts you trust.\n    */\n    function destroy(address[] tokens) onlyOwner public {\n        // Transfer tokens to owner\n        for (uint256 i = 0; i < tokens.length; i++) {\n            ERC20Basic token = ERC20Basic(tokens[i]);\n            uint256 balance = token.balanceOf(this);\n            token.transfer(owner, balance);\n        }\n        // Transfer Eth to owner and terminate contract\n        selfdestruct(owner);\n    }\n}\n",
  "sourcePath": "/home/nico/Desktop/public_repos/hospital_network/contracts/TokenDestructible.sol",
  "compiler": {
    "name": "solc",
    "version": "0.4.23+commit.124ca40d.Emscripten.clang"
  },
  "schemaVersion": "2.0.0",
  "updatedAt": "2018-04-30T00:35:22.272Z"
}